:020000040000FA
:10000000006A00EF01F0E950086E829682908290BB
:100010009496949094900F0E9416085000B222D0AB
:100020003A0E026E980EADEC00F0330E076E2FD82C
:10003000130E026E880EADEC00F029D8640EACEC05
:1000400000F025D8640EACEC00F0220E076E1FD82D
:10005000280E07D80C0E05D8060E03D800820850CB
:1000600001D00080076E00A00BD0829003080EE341
:100070000DD8070E026ED00EADEC00F0D880120045
:100080000080FE08D8B4FDEF00F0828000A0009050
:1000900082860F0E82160750F00B82128296073A64
:1000A00000B0F5D7320EACEC00F0D880FDEF00F0D8
:1000B000159E0A50D8B4158E050E096E270E046ED3
:1000C000100E0CD8030E046EE80E08D8046A640EF5
:1000D00005D8046A0A0E02D8055008D0036E0650EF
:1000E000026E0550016EC0EC00F00150016E094E29
:1000F000159E0A5003E0095CD8B012000150D8A444
:10010000159E15BE1200300FF7EF00F0E836E83606
:100110003C0B0109C212C009C216C050F80B0309FA
:10012000C06E000E026E320EADEC00F0C282C2B2A2
:10013000FED7C450026EC350FDEF00F0046A036E98
:10014000FF0E0326D8A00426D8A0FDEF00F0030E72
:10015000026EE30E02D8F4D7026AF40F016E021E9B
:10016000FE0ED8A003D00126D8B0FDD7012604008A
:10017000023EF9D7000001B000D001B000D012005B
:10018000066A056A100E076E0234053606360350FD
:10019000055E0450065A05E2035005260450062267
:1001A000D89001360236072EEFD70150FDEF00F050
:1001B00003500702F4CF06F0F3CF05F00450080215
:1001C000F4CF02F0F3CF01F003500802F3500626FB
:1001D000F4500122E86A022204500702F350062676
:1001E000F4500122E86A02220550FDEF00F0E96EAA
:1001F000FB6A1250FA6E1150F96E000104001200F1
:10020000C16A870EC06EFF0E926E26EC01F0FE0EE4
:10021000FBDE010EF9DE0A6A1EC005F01FC006F003
:10022000060E116E126A44DFFE0EEEDEC00EECDE2C
:100230000A6A20C005F021C006F0060E116E126A8F
:1002400037DF640E7BDFE1D70300FED7050EC26EF9
:10025000010E5CDF1E6E02C01FF01EC007F01FC043
:1002600008F0320E036E046AA3DF136E06C014F0AA
:1002700013C001F014C002F09A0E036E040E046E57
:0A0280007FDF206E02C021F01200A3
:020000040030CA
:08000000FFF11FF3FFFDBBFF40
:00000001FF
