:020000040000FA
:10000000006A7DEF01F00A6E420E016E0F0E026E65
:100010003DEC01F0D8B4CA90D8A4CA80FC0FD8A097
:10002000CA92D8B0CA82400E016E420E026E0F0E06
:10003000056E066ACAB028D8CAB226D83FEC01F0CD
:100040000104CB6E0150036E0250046E0950076E1E
:10005000086E093C086A55EC01F006500A2E0BD0D8
:10006000BE6E0C0EBD6E05BEBD8A05BCBD889494E7
:10007000CA847AEF01F0BB6E0C0EBA6E05BEBA8A66
:1000800005BCBA889492F4D700D8D89005320232D1
:1000900001321200E950086E829682908290949606
:1000A000949094900F0E9416085000B222D03A0EFD
:1000B000026E980EF4EC00F0330E076E2FD8130E7C
:1000C000026E880EF4EC00F029D8640EF3EC00F018
:1000D00025D8640EF3EC00F0220E076E1FD8280E10
:1000E00007D80C0E05D8060E03D80082085001D0A0
:1000F0000080076E00A00BD0829003080EE30DD89D
:10010000070E026ED00EF4EC00F0D88012000080D2
:10011000FE08D8B47AEF01F0828000A000908286B9
:100120000F0E82160750F00B82128296073A00B02B
:10013000F5D7320EF3EC00F0D8807AEF01F0199E7B
:100140000A50D8B4198E050E096E270E046E100ED3
:100150000CD8030E046EE80E08D8046A640E05D8A5
:10016000046A0A0E02D8055008D0036E0650026ECB
:100170000550016E3DEC01F00150016E094E199ED3
:100180000A5003E0095CD8B012000150D8A4199EAF
:1001900019BE1200300F74EF01F0E836E8363C0B60
:1001A0000109C212C009C216C050F80B0309C06E83
:1001B000000E026E320EF4EC00F0C282C2B2FED724
:1001C000C450026EC3507AEF01F0046A036EFF0E52
:1001D0000326D8A00426D8A07AEF01F0030E026E01
:1001E000DF0E02D8F4D7026AE80F016E021EFC0E81
:1001F000D8A003D00126D8B0FDD701260400023EC6
:10020000F9D701B000D001A202D0000000D0120046
:10021000D89002320132FF0FFBE201507AEF01F079
:10022000036E020E0ED0036E030E0BD0036E010E92
:1002300008D0036E060E05D0036E040E02D0036EC6
:10024000050E096E0450025C02E10350015C040ECD
:10025000D8B0010ED8B4020E0914D8A4FF0E7AEF5C
:1002600001F0E866FF0E0114D8A4FF0E7AEF01F04A
:100270000110D8A4FF0E7AEF01F0066A056A100E8D
:10028000076E0234053606360350055E0450065AE2
:1002900005E20350052604500622D89001360236A6
:1002A000072EEFD701507AEF01F003500702F4CF89
:1002B00006F0F3CF05F004500802F4CF02F0F3CFBC
:1002C00001F003500802F3500626F4500122E86AB8
:1002D000022204500702F3500626F4500122E86A75
:1002E000022205507AEF01F0E96EFB6A1250FA6EB5
:1002F0001150F96E000104001200400ED36EFF0E83
:10030000926E9384946A070EC16E870EC06E0C0EB7
:10031000BD6E070ECA6EFF0ECB6E640E246E256A8C
:100320000A0E266E276A050E366E376A320E386E52
:10033000396A050E7A6E7B6A0A0E7C6E7D6A0F0E34
:100340007E6E7F6A140E806F816B190E826F836BD5
:100350001E0E846F856B230E866F876B280E886F49
:10036000896B2D0E8A6F8B6B320E8C6F8D6B370EF7
:100370008E6F8F6B3C0E906F916BDB0E626E130E67
:10038000636EF10E646E0F0E656EE30E666E0C0EFC
:10039000676E7D0E686E0A0E696E980E6A6E080EA4
:1003A0006B6E150E6C6E070E6D6EDF0E6E6E050EAB
:1003B0006F6EE60E706E040E716E1B0E726E040E82
:1003C000736E760E746E030E756EEE0E766E020E02
:1003D000776E7F0E786E020E796E640E2A6E2B6A2F
:1003E000640E3C6E3D6A2AB0BD882AA0BD982AB230
:1003F000BD8A2AA2BD9A2AC001F02BC002F0020ECB
:100400000ADFBE6E326A336A32C001F033C002F0D6
:10041000046A0A0E14DFD8A410EF02F0326A336ABD
:10042000322AD8B4332A090EC26E020EB6DE566ED8
:1004300002C057F056C007F057C008F0320E036EE6
:10044000046A33DF136E06C014F013C001F014C049
:1004500002F0FF0E036E046A10DF136E02C014F088
:1004600013C007F014C008F00A0E036E046A1DDF03
:10047000566E06C057F094EC03F0A8EC04F05CC094
:1004800009F0F50E036E046A020E03EC00F00D0E87
:10049000C26E030E82DE206E02C021F08FEC05F0EA
:1004A00089EC06F020C007F021C008F02C0E036E86
:1004B000046AFBDE136E06C014F013C001F014C012
:1004C00002F0036A040E046ED8DE2C6E02C02DF01A
:1004D00020C007F021C008F0290E036E046AE5DE93
:1004E000136E06C014F0D8901430456E1330446E6D
:1004F000040081B48FEF02F0B1EC05F02AB0BD88A2
:100500002AA0BD982AB2BD8A2AA2BD9A2AC001F0AB
:100510002BC002F0020E7FDEBE6EA2EF02F0C2EC34
:1005200006F03CB0BD883CA0BD983CB2BD8A3CA260
:10053000BD9A3CC001F03DC002F0020E6CDEBE6E02
:10054000640E43DEFE0E4BEC00F0010E4BEC00F0AF
:10055000540E4BEC00F0650E4BEC00F06D0E4BECC6
:1005600000F0700E4BEC00F03A0E4BEC00F0200E59
:100570004BEC00F00A6A56C005F057C006F0940E26
:10058000116E126A9FEC00F0200E4BEC00F00A6A2C
:100590005AC005F05BC006F0940E116E126A9FEC13
:1005A00000F0FE0E4BEC00F0C00E4BEC00F0460EDF
:1005B0004BEC00F06C0E4BEC00F06F0E4BEC00F0CF
:1005C000770E4BEC00F03A0E4BEC00F0200E4BECAB
:1005D00000F00A6A2CC005F02DC006F0940E116ED2
:1005E000126A9FEC00F0200E4BEC00F0200E4BEC5A
:1005F00000F00A6A2EC005F02FC006F0940E116EAE
:10060000126A9FEC00F0FE0E4BEC00F0940E4BECE7
:1006100000F0500E4BEC00F0720E4BEC00F0650E4B
:100620004BEC00F0730E4BEC00F0730E4BEC00F053
:10063000750E4BEC00F0720E4BEC00F0650E4BECBF
:1006400000F03A0E4BEC00F00A6A44C005F045C0D9
:1006500006F0940E116E126A9FEC00F0200E4BEC27
:1006600000F00A6A42C005F043C006F0940E116E15
:10067000126A9FEC00F0040081B463EF03F0FE0EF9
:100680004BEC00F0D40E4BEC00F0460E4BEC00F0BF
:100690006C0E4BEC00F06F0E4BEC00F0770E4BEC59
:1006A00000F0200E4BEC00F0200E4BEC00F00A6A3C
:1006B0002AC005F02BC006F0940E116E126A9FEC52
:1006C00000F091EF03F0FE0E4BEC00F0D40E4BEC7B
:1006D00000F0500E4BEC00F0720E4BEC00F0650E8B
:1006E0004BEC00F0730E4BEC00F0730E4BEC00F093
:1006F000750E4BEC00F0720E4BEC00F0650E4BECFF
:1007000000F0200E4BEC00F0200E4BEC00F00A6ADB
:100710003CC005F03DC006F0940E116E126A9FECCD
:1007200000F072D60300FED7010EC26E000ECDECB3
:1007300000F0486E02C049F0016AB00E026E48C077
:1007400003F049C004F03DEC01F0136E02C014F058
:1007500013C007F014C008F0320E036E046A55ECA3
:1007600001F0136E06C014F0980E135C4E6E080E66
:1007700014584F6E4EC001F04FC002F063C004F039
:10078000625016EC01F0136E4EC001F04FC002F043
:1007900079C004F078501CEC01F0156E13C001F024
:1007A000155038EC01F0156E166E04001550161039
:1007B000D8B4DDEF03F0A7EF04F0306A316A30C03F
:1007C00001F031C002F0046A0B0E16EC01F0D8A45F
:1007D00070EF04F0D8903034E96E3134EA6E620E76
:1007E000E926000EEA22EFCF13F0ECCF14F04EC052
:1007F00001F04FC002F014C004F013501CEC01F0E3
:10080000136E010E3024156E000E3120166ED89036
:100810001534E96E1634EA6E620EE926000EEA22FD
:10082000EFCF15F0ECCF16F04EC001F04FC002F044
:1008300016C004F0155013EC01F0156E13C001F052
:10084000155031EC01F0156E166E0400155016109F
:10085000D8B46BEF04F0010E3024136E000E31207B
:10086000146ED8901334E96E1434EA6E620EE926E1
:10087000000EEA22EFCF4AF0ECCF4BF0D8903034A4
:10088000E96E3134EA6E620EE926000EEA22EFCFFD
:100890004CF0ECCF4DF0D8903034E96E3134EA6E44
:1008A0007A0EE926000EEA22EFCF54F0ECCF55F095
:1008B000010E3024136E000E3120146ED8901334C4
:1008C000E96E1434EA6E7A0EE926000EEA22EFCFC2
:1008D00058F0ECCF59F0302AD8B4312AD8A46FD7C9
:1008E00058C007F059C008F00A0E036E046A55ECB0
:1008F00001F0136E06C014F04A504E5C156E4B505A
:100900004F58166E15C007F016C008F0320E036E71
:10091000046A55EC01F0156E06C016F04A504C5CA6
:10092000176E4B504D58186E15C001F016C002F0EE
:1009300017C003F018C004F03DEC01F0176E02C0C0
:1009400018F01750135C5A6E185014585B6E120052
:100950005AC001F05BC002F057C004F0565019ECC9
:1009600001F0D8A422EF05F05CC001F05DC002F0F8
:10097000046A000E19EC01F0D8A41EEF05F05650E1
:100980005A5C136E57505B58146E13C001F014C0BC
:1009900002F025C004F0245019EC01F0D8A4D5EFE2
:1009A00004F00C0E5C5E000E5D5A56505A5C136EDD
:1009B00057505B58146E13C001F014C002F039C0D8
:1009C00004F0385016EC01F0136E56505A5C156E58
:1009D00057505B58166E15C001F016C002F037C0B4
:1009E00004F036501CEC01F0156E13C001F01550E8
:1009F00031EC01F0156E166E040015501610D8B4C7
:100A000006EF05F0080E5C5E000E5D5A56505A5C0B
:100A1000136E57505B58146E13C001F014C002F0EF
:100A200039C004F0385013EC01F0D8A41CEF05F0E5
:100A3000010E5C5E000E5D5A20EF05F05C6A5D6A97
:100A40008EEF05F05CC001F05DC002F0046AFE0E9E
:100A500013EC01F0D8A48BEF05F05A50565C136EDE
:100A60005B505758146E13C001F014C002F025C03B
:100A700004F0245019EC01F0D8A443EF05F00C0E5B
:100A80005C26000E5D225A50565C136E5B50575820
:100A9000146E13C001F014C002F027C004F02650F9
:100AA00016EC01F0136E5A50565C156E5B50575899
:100AB000166E15C001F016C002F025C004F02450D7
:100AC0001CEC01F0156E13C001F0155031EC01F073
:100AD000156E166E040015501610D8B474EF05F09C
:100AE000080E5C26000E5D225A50565C136E5B5059
:100AF0005758146E13C001F014C002F027C004F060
:100B0000265013EC01F0D8A489EF05F05C2AD8B484
:100B10005D2A8EEF05F0FE0E5C6E5D6A1200110E0E
:100B2000C26E040ECDEC00F0226E02C023F022C093
:100B300007F023C008F0320E036E046A55EC01F092
:100B4000136E06C014F013C001F014C002F09A0E28
:100B5000036E040E046E3DEC01F02E6E02C02FF009
:100B6000120032C001F033C002F0046A040E1FEC20
:100B700001F0D8A488EF06F02EC001F02FC002F0DB
:100B80002DC004F02C5013EC01F0D8A410EF06F0A7
:100B90002AC001F02BC002F0046A780E13EC01F0B9
:100BA000D8A40DEF06F02E502C5C136E2F502D584C
:100BB000146E13C001F014C002F0046A020E19ECA6
:100BC00001F0D8A408EF06F02E502C5C136E2F50C5
:100BD0002D58146E040E076E086A13C003F014C07B
:100BE00004F055EC01F0136E06C014F013C001F0D0
:100BF00014C002F0050E036E046A3DEC01F0136EA2
:100C000002C014F013502A2614502B220BEF06F0CA
:100C10002A2AD8B42B2A10EF06F0780E2A6E2B6AF7
:100C20002EC001F02FC002F02DC004F02C5019ECA2
:100C300001F0D8A465EF06F02AC001F02BC002F045
:100C4000046A320E19EC01F0D8A462EF06F02C50C1
:100C50002E5C136E2D502F58146E13C001F014C06B
:100C600002F0046A020E19EC01F0D8A45CEF06F061
:100C70002C502E5C136E2D502F58146E040E076EE0
:100C8000086A13C003F014C004F055EC01F0136EB1
:100C900006C014F013C001F014C002F0050E036E7C
:100CA000046A3DEC01F0136E02C014F013502A5E8A
:100CB00014502B5A60EF06F0010E2A5E000E2B5ADC
:100CC00065EF06F0320E2A6E2B6A2EC001F02FC09F
:100CD00002F02DC004F02C5010EC01F0136E2CC06B
:100CE00001F02DC002F0046A000E10EC01F0156E48
:100CF00013C001F0155031EC01F0156E166E0400B2
:100D000015501610D8B488EF06F0320E2A6E2B6AF2
:100D10001200110EC26E040ECDEC00F03A6E02C04D
:100D20003BF03AC007F03BC008F03C0E036E046A8B
:100D300055EC01F0136E06C014F013C001F014C09E
:100D400002F0380E036E046A3DEC01F0136E02C02F
:100D500014F0230E135C406E000E1458416E3AC01E
:100D600007F03BC008F0170E036E046A55EC01F063
:100D7000136E06C014F0A20E1324426E000E14204F
:100D8000436E120042C001F043C002F045C004F0BF
:100D9000445013EC01F0D8A41AEF07F03CC001F066
:100DA0003DC002F0046A780E13EC01F0D8A417EFEE
:100DB00007F04250445C136E43504558146E13C004
:100DC00001F014C002F0030E046EE80E19EC01F0FD
:100DD000D8A404EF07F04250445C136E43504558CA
:100DE000146E13C001F014C002F0BC0E036E020EAC
:100DF000046E3DEC01F0136E02C014F013503C265B
:100E000014503D2207EF07F03C2AD8B43D2A3CC0DD
:100E100001F03DC002F0046A780E19EC01F0D8A48C
:100E200015EF07F0780E3C6E3D6A1AEF07F0780E6A
:100E30003C6E3D6A42C001F043C002F045C004F080
:100E4000445019EC01F0D8A473EF07F03CC001F056
:100E50003DC002F0046A320E19EC01F0D8A470EF24
:100E600007F04450425C136E45504358146E13C053
:100E700001F014C002F0030E046EE80E19EC01F04C
:100E8000D8A45CEF07F04450425C136E45504358C1
:100E9000146E13C001F014C002F0BC0E036E020EFB
:100EA000046E3DEC01F0136E02C014F013503C5E72
:100EB00014503D5A60EF07F0010E3C5E000E3D5AA3
:100EC00044C001F045C002F0046A000E1FEC01F0BE
:100ED000D8A46EEF07F0320E3C6E3D6A73EF07F058
:080EE000320E3C6E3D6A120067
:020000040030CA
:08000000FFF11FF3FFFDBBFF40
:00000001FF
