:020000040000FA
:10000000006A7DEF01F00A6E420E016E0F0E026E65
:100010003DEC01F0D8B4CA90D8A4CA80FC0FD8A097
:10002000CA92D8B0CA82400E016E420E026E0F0E06
:10003000056E066ACAB028D8CAB226D83FEC01F0CD
:100040000104CB6E0150036E0250046E0950076E1E
:10005000086E093C086A55EC01F006500A2E0BD0D8
:10006000BE6E0C0EBD6E05BEBD8A05BCBD889494E7
:10007000CA847AEF01F0BB6E0C0EBA6E05BEBA8A66
:1000800005BCBA889492F4D700D8D89005320232D1
:1000900001321200E950086E829682908290949606
:1000A000949094900F0E9416085000B222D03A0EFD
:1000B000026E980EF4EC00F0330E076E2FD8130E7C
:1000C000026E880EF4EC00F029D8640EF3EC00F018
:1000D00025D8640EF3EC00F0220E076E1FD8280E10
:1000E00007D80C0E05D8060E03D80082085001D0A0
:1000F0000080076E00A00BD0829003080EE30DD89D
:10010000070E026ED00EF4EC00F0D88012000080D2
:10011000FE08D8B47AEF01F0828000A000908286B9
:100120000F0E82160750F00B82128296073A00B02B
:10013000F5D7320EF3EC00F0D8807AEF01F0199E7B
:100140000A50D8B4198E050E096E270E046E100ED3
:100150000CD8030E046EE80E08D8046A640E05D8A5
:10016000046A0A0E02D8055008D0036E0650026ECB
:100170000550016E3DEC01F00150016E094E199ED3
:100180000A5003E0095CD8B012000150D8A4199EAF
:1001900019BE1200300F74EF01F0E836E8363C0B60
:1001A0000109C212C009C216C050F80B0309C06E83
:1001B000000E026E320EF4EC00F0C282C2B2FED724
:1001C000C450026EC3507AEF01F0046A036EFF0E52
:1001D0000326D8A00426D8A07AEF01F0030E026E01
:1001E000DF0E02D8F4D7026AE80F016E021EFC0E81
:1001F000D8A003D00126D8B0FDD701260400023EC6
:10020000F9D701B000D001A202D0000000D0120046
:10021000D89002320132FF0FFBE201507AEF01F079
:10022000036E020E0ED0036E030E0BD0036E010E92
:1002300008D0036E060E05D0036E040E02D0036EC6
:10024000050E096E0450025C02E10350015C040ECD
:10025000D8B0010ED8B4020E0914D8A4FF0E7AEF5C
:1002600001F0E866FF0E0114D8A4FF0E7AEF01F04A
:100270000110D8A4FF0E7AEF01F0066A056A100E8D
:10028000076E0234053606360350055E0450065AE2
:1002900005E20350052604500622D89001360236A6
:1002A000072EEFD701507AEF01F003500702F4CF89
:1002B00006F0F3CF05F004500802F4CF02F0F3CFBC
:1002C00001F003500802F3500626F4500122E86AB8
:1002D000022204500702F3500626F4500122E86A75
:1002E000022205507AEF01F0E96EFB6A1250FA6EB5
:1002F0001150F96E000104001200400ED36EFF0E83
:10030000926E938293849386946A070EC16E870ED1
:10031000C06E0C0EBD6E070ECA6EFF0ECB6E640E65
:10032000266E276A0A0E286E296A050E386E396A0B
:10033000320E3A6E3B6A050EB46FB56B0A0EB66F9D
:10034000B76B0F0EB86FB96B100EBA6FBB6B120E96
:10035000BC6FBD6B140EBE6FBF6B160EC06FC16B52
:10036000180EC26FC36B1A0EC46FC56B1C0EC66F1E
:10037000C76B1E0EC86FC96B200ECA6FCB6B220EE7
:10038000CC6FCD6B230ECE6FCF6B280ED06FD16BA1
:100390002D0ED26FD36B320ED46FD56B370ED66F56
:1003A000D76B3C0ED86FD96B410EDA6FDB6B460E04
:1003B000DC6FDD6B4B0EDE6FDF6B500EE06FE16BC1
:1003C000550EE26FE36B5A0EE46FE56B5F0EE66F5E
:1003D000E76B640EE86FE96BDB0E7E6E130E7F6ECB
:1003E000F10E806F0F0E816FE30E826F0C0E836F24
:1003F000680E846F0C0E856F730E866F0B0E876F01
:100400007E0E886F0A0E896FBC0E8A6F090E8B6F85
:10041000F90E8C6F080E8D6F4B0E8E6F080E8F6F5E
:10042000B00E906F070E916F160E926F070E936FBE
:100430009A0E946F060E956F1E0E966F060E976FAE
:10044000DF0E986F050E996FE60E9A6F040E9B6F84
:100450001B0E9C6F040E9D6F760E9E6F030E9F6F9A
:10046000EE0EA06F020EA16F7F0EA26F020EA36FA1
:10047000220EA46F020EA56FD40EA66F010EA76FF9
:10048000940EA86F010EA96F5E0EAA6F010EAB6FDE
:10049000300EAC6F010EAD6F0A0EAE6F010EAF6F76
:1004A000E90EB06FB16BCC0EB26FB36B640E2C6EF5
:1004B0002D6A640E3E6E3F6A2CB0BD882CA0BD989C
:1004C0002CB2BD8A2CA2BD9A2CC001F02DC002F026
:1004D000020EA1DEBE6E346A356A34C001F035C04A
:1004E00002F0046A0A0EABDED8A479EF02F0346A97
:1004F000356A342AD8B4352A090EC26E020E4DDE92
:100500005A6E02C05BF05AC007F05BC008F0190ECB
:10051000036E046ACADE136E06C014F013C001F045
:1005200014C002F0FF0E036E046AA7DE5A6E02C00A
:100530005BF0E5EC04F05CEC07F081EC09F078C0CE
:1005400009F0F50E036E046A020E03EC00F00D0EC6
:10055000C26E030E22DE206E02C021F0110EC26EAA
:10056000040E1BDE226E02C023F0ECEC09F0D1EC8D
:100570000AF020C007F021C008F02C0E036E046AB8
:1005800094DE136E06C014F013C001F014C002F024
:10059000036A040E046E71DE2E6E02C02FF022C0BC
:1005A00007F023C008F0290E036E046A7EDE136E86
:1005B00006C014F0D8901432133213C001F014C0E6
:1005C00002F0F40E036E010E046E57DE136E02C0CD
:1005D00014F013C007F014C008F0F40E036E010EFF
:1005E000046E63DE486E06C049F0040081B40CEF6F
:1005F00003F00EEC0AF02CB0BD882CA0BD982CB2F4
:10060000BD8A2CA2BD9A2CC001F02DC002F0020EB2
:1006100002DEBE6E21EF03F04DEC0BF03EB0BD8864
:100620003EA0BD983EB2BD8A3EA2BD9A3EC001F03A
:100630003FC002F0020E0BEC01F0BE6E640EE5EC62
:1006400000F0FE0E4BEC00F0010E4BEC00F0540EEF
:100650004BEC00F0650E4BEC00F06D0E4BEC00F037
:10066000700E4BEC00F03A0E4BEC00F0200E4BEC11
:1006700000F00A6A5AC005F05BC006F0940E116ED5
:10068000126A9FEC00F0200E4BEC00F00A6A56C094
:1006900005F057C006F0940E116E126A9FEC00F040
:1006A000200E4BEC00F00A6A6CC005F06DC006F03D
:1006B000940E116E126A9FEC00F0FE0E4BEC00F0EF
:1006C000C00E4BEC00F0460E4BEC00F06C0E4BEC09
:1006D00000F06F0E4BEC00F0770E4BEC00F03A0E92
:1006E0004BEC00F0200E4BEC00F00A6A2EC001F03B
:1006F0002FC002F00A0E036E046A3DEC01F0136E87
:1007000002C014F013C005F014C006F0940E116E70
:10071000126A9FEC00F02E0E4BEC00F00A6A2EC01D
:1007200001F02FC002F00A0E036E046A3DEC01F0E6
:1007300005C013F006C014F013C005F014C006F095
:10074000940E116E126A9FEC00F0200E4BEC00F03C
:10075000200E4BEC00F00A6A30C001F031C002F00C
:100760000A0E036E046A3DEC01F0136E02C014F031
:1007700013C005F014C006F0940E116E126A9FECBF
:1007800000F02E0E4BEC00F00A6A30C001F031C0D0
:1007900002F00A0E036E046A3DEC01F005C013F08E
:1007A00006C014F013C005F014C006F0940E116ECC
:1007B000126A9FEC00F0FE0E4BEC00F0940E4BEC36
:1007C00000F0500E4BEC00F0720E4BEC00F0650E9A
:1007D0004BEC00F0730E4BEC00F0730E4BEC00F0A2
:1007E000750E4BEC00F0720E4BEC00F0650E4BEC0E
:1007F00000F03A0E4BEC00F00A6A48C001F049C024
:1008000002F0E80E036E030E046E3DEC01F0136E71
:1008100002C014F013C005F014C006F0940E116E5F
:10082000126A9FEC00F02E0E4BEC00F00A6A48C0F2
:1008300001F049C002F0640E036E046A3DEC01F061
:10084000136E02C014F013C001F014C002F00A0EBF
:10085000036E046A3DEC01F005C013F006C014F00D
:1008600013C005F014C006F0940E116E126A9FECCE
:1008700000F0200E4BEC00F00A6A44C001F045C0C5
:1008800002F0E80E036E030E046E3DEC01F0136EF1
:1008900002C014F013C005F014C006F0940E116EDF
:1008A000126A9FEC00F02E0E4BEC00F00A6A44C076
:1008B00001F045C002F0640E036E046A3DEC01F0E5
:1008C000136E02C014F013C001F014C002F00A0E3F
:1008D000036E046A3DEC01F005C013F006C014F08D
:1008E00013C005F014C006F0940E116E126A9FEC4E
:1008F00000F0040081B4AAEF04F0FE0E4BEC00F00F
:10090000D40E4BEC00F0460E4BEC00F06C0E4BECB2
:1009100000F06F0E4BEC00F0770E4BEC00F0200E69
:100920004BEC00F0700E4BEC00F0770E4BEC00F04F
:100930006D0E4BEC00F0200E4BEC00F00A6A2CC060
:1009400005F02DC006F0940E116E126A9FEC00F0B7
:10095000E1EF04F0FE0E4BEC00F0D40E4BEC00F097
:10096000500E4BEC00F0720E4BEC00F0650E4BECB1
:1009700000F0730E4BEC00F0730E4BEC00F0750EB4
:100980004BEC00F0720E4BEC00F0650E4BEC00F0FF
:10099000200E4BEC00F0700E4BEC00F0770E4BECA1
:1009A00000F06D0E4BEC00F0200E4BEC00F00A6AEC
:1009B0003EC005F03FC006F0940E116E126A9FEC27
:1009C00000F06DEF02F00300FED7010EC26E000EC4
:1009D000CDEC00F04C6E02C04DF0016ADC0E026EF0
:1009E0004CC003F04DC004F03DEC01F0136E02C0AA
:1009F00014F013C007F014C008F0280E036E046A48
:100A000055EC01F0136E06C014F0980E135C526E94
:100A1000080E1458536E52C001F053C002F07FC04C
:100A200004F07E5016EC01F0136E52C001F053C07A
:100A300002F0B5C004F0B4511CEC01F0156E13C007
:100A400001F0155038EC01F0156E166E04001550CB
:100A50001610D8B42EEF05F05BEF07F0326A336A58
:100A600032C001F033C002F0046A130E16EC01F03C
:100A7000D8A4C1EF05F0D8903234E96E3334EA6E71
:100A80007E0EE926000EEA22EFCF13F0ECCF14F031
:100A900052C001F053C002F014C004F013501CEC1B
:100AA00001F0136E010E3224156E000E3320166E07
:100AB000D8901534E96E1634EA6E7E0EE926000EE3
:100AC000EA22EFCF15F0ECCF16F052C001F053C080
:100AD00002F016C004F0155013EC01F0156E13C0AF
:100AE00001F0155031EC01F0156E166E0400155032
:100AF0001610D8B4BCEF05F0010E3224136E000EB0
:100B00003320146ED8901334E96E1434EA6E7E0EDE
:100B1000E926000EEA22EFCF4EF0ECCF4FF0D8904E
:100B20003234E96E3334EA6E7E0EE926000EEA2294
:100B3000EFCF50F0ECCF51F0D8903234E96E33342F
:100B4000EA6EB40EE926000EEA22EFCF58F0ECCFA1
:100B500059F0010E3224136E000E3320146ED8901B
:100B60001334E96E1434EA6EB40EE926000EEA225C
:100B7000EFCF5EF0ECCF5FF0322AD8B4332AD8A49E
:100B80006FD75EC001F05FC002F0046A0F0E19EC6F
:100B900001F0136E58C001F059C002F0046A230E30
:100BA00013EC01F0156E13C001F0155038EC01F094
:100BB000156E166E040015501610D8B450EF06F0DE
:100BC0005EC007F05FC008F0640E036E046A55EC67
:100BD00001F0136E06C014F04E50525C156E4F506B
:100BE0005358166E15C007F016C008F0640E036E59
:100BF000046A55EC01F0156E06C016F04E50505CBC
:100C0000176E4F505158186E15C001F016C002F003
:100C100017C003F018C004F03DEC01F0176E02C0DD
:100C200018F017C007F018C008F0050E036E046A2C
:100C300055EC01F0176E06C018F01750135C176ED4
:100C400018501458186E17C001F018C002F00A0EA0
:100C5000036E046A3DEC01F0606E02C061F0FE0EAE
:100C60004BEC00F0D40E4BEC00F0680E4BEC00F0B7
:100C7000650E4BEC00F0720E4BEC00F0650E4BEC89
:100C800000F0200E4BEC00F00A6A60C005F061C075
:100C900006F0940E116E126A9FEC00F003EF07F05D
:100CA00058C001F059C002F0046A0F0E10EC01F0B8
:100CB000136E58C001F059C002F0046A220E10EC05
:100CC00001F0156E13C001F0155038EC01F0156EEF
:100CD000166E040015501610D8B4B4EF06F05EC0BE
:100CE00007F05FC008F0640E036E046A55EC01F073
:100CF000136E06C014F04E50525C156E4F50535890
:100D0000166E15C007F016C008F0640E036E046A74
:100D100055EC01F0156E06C016F04E50505C176E83
:100D20004F505158186E15C001F016C002F017C090
:100D300003F018C004F03DEC01F0176E02C018F08B
:100D40001750135C176E18501458186E17C001F026
:100D500018C002F00A0E036E046A3DEC01F0606EEA
:100D600002C061F003EF07F05EC007F05FC008F05B
:100D7000640E036E046A55EC01F0136E06C014F0A5
:100D80004E50525C156E4F505358166E15C007F0FA
:100D900016C008F0020E036E046A55EC01F0156EE1
:100DA00006C016F015C007F016C008F0640E036EFA
:100DB000046A55EC01F0156E06C016F04E50505CFA
:100DC000176E4F505158186E15C001F016C002F042
:100DD00017C003F018C004F03DEC01F0176E02C01C
:100DE00018F01750135C176E18501458186E17C06F
:100DF00001F018C002F00A0E036E046A3DEC01F027
:100E0000606E02C061F060C001F061C002F00A0EC5
:100E1000036E046A3DEC01F0566E02C057F060C0EC
:100E200001F061C002F00A0E036E046A3DEC01F0AD
:100E300005C05CF006C05DF05CC001F05DC002F072
:100E4000046A080E1CEC01F0D8A42CEF07F0562A17
:100E5000D8B4572A546A556A5CC001F05DC002F0EC
:100E6000046A080E1CEC01F0136E5CC001F05DC05A
:100E700002F0046A020E16EC01F0156E13C001F0C8
:100E8000155031EC01F0156E166E04001550161059
:100E9000D8B44EEF07F0050E546E556A5CC001F0F1
:100EA0005DC002F0046A030E13EC01F0D8A45BEFFE
:100EB00007F0546A556A1200050EC26E010ECDECA1
:100EC00000F0626E02C063F0016ADC0E026E62C066
:100ED00003F063C004F03DEC01F0136E02C014F0A7
:100EE00013C007F014C008F0280E036E046A55EC16
:100EF00001F0136E06C014F0980E135C686E080EB5
:100F00001458696E68C001F069C002F07FC004F037
:100F10007E5016EC01F0136E68C001F069C002F05B
:100F2000A5C004F0A4511CEC01F0156E13C001F033
:100F3000155038EC01F0156E166E040015501610A1
:100F4000D8B4A5EF07F080EF09F0326A336A32C0F7
:100F500001F033C002F0046A130E16EC01F0D8A4BD
:100F600038EF08F0D8903234E96E3334EA6E7E0EF2
:100F7000E926000EEA22EFCF13F0ECCF14F068C0A0
:100F800001F069C002F014C004F013501CEC01F031
:100F9000136E010E3224156E000E3320166ED8909B
:100FA0001534E96E1634EA6E7E0EE926000EEA224A
:100FB000EFCF15F0ECCF16F068C001F069C002F079
:100FC00016C004F0155013EC01F0156E13C001F0BB
:100FD000155031EC01F0156E166E04001550161008
:100FE000D8B433EF08F0010E3224136E000E332014
:100FF000146ED8901334E96E1434EA6E7E0EE9262E
:10100000000EEA22EFCF64F0ECCF65F0D8903234D6
:10101000E96E3334EA6E7E0EE926000EEA22EFCF47
:1010200066F0ECCF67F0D8903234E96E3334EA6E74
:10103000B40EE926000EEA22EFCF6EF0ECCF6FF08F
:10104000010E3224136E000E3320146ED890133428
:10105000E96E1434EA6EB40EE926000EEA22EFCFF0
:1010600074F0ECCF75F0322AD8B4332AD8A46FD7F5
:1010700074C001F075C002F0046A0F0E19EC01F0A3
:10108000136E6EC001F06FC002F0046A230E13EC01
:1010900001F0156E13C001F0155038EC01F0156E1B
:1010A000166E040015501610D8B4A6EF08F074C0E0
:1010B00007F075C008F0640E036E046A55EC01F089
:1010C000136E06C014F06450685C156E6550695864
:1010D000166E15C007F016C008F0050E036E046A00
:1010E00055EC01F0156E06C016F015C007F016C0DD
:1010F00008F0640E036E046A55EC01F0156E06C02C
:1011000016F06450665C176E65506758186E15C00F
:1011100001F016C002F017C003F018C004F03DEC57
:1011200001F0176E02C018F01750135C176E1850BC
:101130001458186E17C001F018C002F00A0E036EA2
:10114000046A3DEC01F0766E02C077F06EC001F0EB
:101150006FC002F0046A0F0E10EC01F0136E6EC047
:1011600001F06FC002F0046A220E10EC01F0156E5F
:1011700013C001F0155038EC01F0156E166E040026
:1011800015501610D8B40AEF09F074C007F075C0F6
:1011900008F0640E036E046A55EC01F0136E06C08D
:1011A00014F06450685C156E65506958166E15C071
:1011B00007F016C008F0640E036E046A55EC01F0E7
:1011C000156E06C016F06450665C176E6550675861
:1011D000186E15C001F016C002F017C003F018C059
:1011E00004F03DEC01F0176E02C018F01750135CCC
:1011F000176E18501458186E17C001F018C002F07E
:101200000A0E036E046A3DEC01F0766E02C077F0C0
:1012100059EF09F074C007F075C008F0640E036E52
:10122000046A55EC01F0136E06C014F06450685C5B
:10123000156E65506958166E15C007F016C008F097
:10124000020E036E046A55EC01F0156E06C016F02E
:1012500015C007F016C008F0640E036E046A55EC62
:1012600001F0156E06C016F06450665C176E65508E
:101270006758186E15C001F016C002F017C003F0D1
:1012800018C004F03DEC01F0176E02C018F01750C2
:10129000135C176E18501458186E17C001F018C060
:1012A00002F00A0E036E046A3DEC01F0766E02C095
:1012B00077F076C001F077C002F00A0E036E046A80
:1012C0003DEC01F06C6E02C06DF076C001F077C0AD
:1012D00002F00A0E036E046A3DEC01F005C06AF0EC
:1012E00006C06BF06AC001F06BC002F0046A050E24
:1012F0001CEC01F0D8A480EF09F06C2AD8B46D2A58
:10130000120056C001F057C002F05BC004F05A5002
:1013100019EC01F0D8A4A0EF09F078C001F079C071
:1013200002F0046A000E19EC01F0D8A49EEF09F057
:10133000010E785E000E795AA0EF09F0786A796A9A
:1013400056C001F057C002F05BC004F05A5013ECD5
:1013500001F0D8A4D0EF09F06CC001F06DC002F02C
:10136000046A460E13EC01F0D8A4CCEF09F078C063
:1013700001F079C002F0046AFE0E13EC01F0D8A46B
:10138000C7EF09F0782AD8B4792ACAEF09F0FE0E1F
:10139000786E796AD0EF09F0010E785E000E795A06
:1013A00078C001F079C002F0046AFE0E19EC01F079
:1013B000D8A4DEEF09F0FE0E786E796A5AC001F00B
:1013C0005BC002F0046A000E1FEC01F0D8A4EBEF42
:1013D00009F0786A796A1200250EC26E090ECDEC0A
:1013E00000F0246E02C025F024C007F025C008F0EC
:1013F000320E036E046A55EC01F0136E06C014F051
:1014000013C001F014C002F09A0E036E040E046EB5
:101410003DEC01F0306E02C031F0120034C001F03A
:1014200035C002F0046A040E1FEC01F0D8A4D0EF1E
:101430000AF030C001F031C002F02FC004F02E508D
:1014400013EC01F0D8A46DEF0AF02CC001F02DC010
:1014500002F0046A780E13EC01F0D8A46AEF0AF0E7
:1014600030502E5C136E31502F58146E13C001F0A3
:1014700014C002F0046A020E19EC01F0D8A465EF62
:101480000AF030502E5C136E31502F58146E040E3B
:10149000076E086A13C003F014C004F055EC01F0A5
:1014A000136E06C014F013C001F014C002F0050E54
:1014B000036E046A3DEC01F0136E02C014F0135089
:1014C0002C2614502D2268EF0AF02C2AD8B42D2A8D
:1014D0006DEF0AF0780E2C6E2D6A30C001F031C02D
:1014E00002F02FC004F02E5019EC01F0D8A4C2EF86
:1014F0000AF02CC001F02DC002F0046A320E19EC83
:1015000001F0D8A4BFEF0AF02E50305C136E2F50BC
:101510003158146E13C001F014C002F0046A020EB8
:1015200019EC01F0D8A4B9EF0AF02E50305C136E1C
:101530002F503158146E040E076E086A13C003F062
:1015400014C004F055EC01F0136E06C014F013C083
:1015500001F014C002F0050E036E046A3DEC01F0C8
:10156000136E02C014F013502C5E14502D5ABDEFB0
:101570000AF0010E2C5E000E2D5AC2EF0AF0320E58
:101580002C6E2D6A2EC001F02FC002F0046A000EEE
:101590001FEC01F0D8A4D0EF0AF0320E2C6E2D6AA9
:1015A0001200290EC26E0A0ECDEC00F03C6E02C095
:1015B0003DF03CC007F03DC008F03C0E036E046AED
:1015C00055EC01F0136E06C014F013C001F014C006
:1015D00002F0380E036E046A3DEC01F0136E02C097
:1015E00014F0230E135C426E000E1458436E3CC080
:1015F00007F03DC008F0170E036E046A55EC01F0C9
:10160000136E06C014F0A20E1326000E142213C08F
:1016100001F014C002F0320E036E046A3DEC01F0DA
:1016200005C046F006C047F03CC007F03DC008F0DA
:10163000170E036E046A55EC01F0136E06C014F029
:10164000A20E1326000E142213C001F014C002F0E3
:10165000F40E036E010E046E3DEC01F0446E02C008
:1016600045F046C001F047C002F0046AFA0E1CECD7
:1016700001F0D8A43FEF0BF0442AD8B4452A44C067
:1016800007F045C008F0F40E036E010E046E55EC31
:1016900001F0446E06C045F0120044C001F045C0A0
:1016A00002F049C004F0485013EC01F0D8A4A5EFB3
:1016B0000BF03EC001F03FC002F0046A780E13EC5C
:1016C00001F0D8A4A2EF0BF04450485C136E4550D3
:1016D0004958146E13C001F014C002F0030E046EDA
:1016E000E80E19EC01F0D8A48FEF0BF04450485CE1
:1016F000136E45504958146E13C001F014C002F027
:10170000BC0E036E020E046E3DEC01F0136E02C0BF
:1017100014F013503E2614503F2292EF0BF03E2A55
:10172000D8B43F2A3EC001F03FC002F0046A780EF0
:1017300019EC01F0D8A4A0EF0BF0780E3E6E3F6AD2
:10174000A5EF0BF0780E3E6E3F6A44C001F045C035
:1017500002F049C004F0485019EC01F0D8A4FEEFA3
:101760000BF03EC001F03FC002F0046A320E19ECEB
:1017700001F0D8A4FBEF0BF04850445C136E4950C5
:101780004558146E13C001F014C002F0030E046E2D
:10179000E80E19EC01F0D8A4E7EF0BF04850445CD8
:1017A000136E49504558146E13C001F014C002F076
:1017B000BC0E036E020E046E3DEC01F0136E02C00F
:1017C00014F013503E5E14503F5AEBEF0BF0010E35
:1017D0003E5E000E3F5A48C001F049C002F0046A64
:1017E000000E1FEC01F0D8A4F9EF0BF0320E3E6EA4
:0E17F0003F6AFEEF0BF0320E3E6E3F6A1200B3
:020000040030CA
:08000000FFF11FF3FFFDBBFF40
:00000001FF
