:020000040000FA
:10000000006A7DEF01F00A6E420E016E0F0E026E65
:100010003DEC01F0D8B4CA90D8A4CA80FC0FD8A097
:10002000CA92D8B0CA82400E016E420E026E0F0E06
:10003000056E066ACAB028D8CAB226D83FEC01F0CD
:100040000104CB6E0150036E0250046E0950076E1E
:10005000086E093C086A55EC01F006500A2E0BD0D8
:10006000BE6E0C0EBD6E05BEBD8A05BCBD889494E7
:10007000CA847AEF01F0BB6E0C0EBA6E05BEBA8A66
:1000800005BCBA889492F4D700D8D89005320232D1
:1000900001321200E950086E829682908290949606
:1000A000949094900F0E9416085000B222D03A0EFD
:1000B000026E980EF4EC00F0330E076E2FD8130E7C
:1000C000026E880EF4EC00F029D8640EF3EC00F018
:1000D00025D8640EF3EC00F0220E076E1FD8280E10
:1000E00007D80C0E05D8060E03D80082085001D0A0
:1000F0000080076E00A00BD0829003080EE30DD89D
:10010000070E026ED00EF4EC00F0D88012000080D2
:10011000FE08D8B47AEF01F0828000A000908286B9
:100120000F0E82160750F00B82128296073A00B02B
:10013000F5D7320EF3EC00F0D8807AEF01F0199E7B
:100140000A50D8B4198E050E096E270E046E100ED3
:100150000CD8030E046EE80E08D8046A640E05D8A5
:10016000046A0A0E02D8055008D0036E0650026ECB
:100170000550016E3DEC01F00150016E094E199ED3
:100180000A5003E0095CD8B012000150D8A4199EAF
:1001900019BE1200300F74EF01F0E836E8363C0B60
:1001A0000109C212C009C216C050F80B0309C06E83
:1001B000000E026E320EF4EC00F0C282C2B2FED724
:1001C000C450026EC3507AEF01F0046A036EFF0E52
:1001D0000326D8A00426D8A07AEF01F0030E026E01
:1001E000DF0E02D8F4D7026AE80F016E021EFC0E81
:1001F000D8A003D00126D8B0FDD701260400023EC6
:10020000F9D701B000D001A202D0000000D0120046
:10021000D89002320132FF0FFBE201507AEF01F079
:10022000036E020E0ED0036E030E0BD0036E010E92
:1002300008D0036E060E05D0036E040E02D0036EC6
:10024000050E096E0450025C02E10350015C040ECD
:10025000D8B0010ED8B4020E0914D8A4FF0E7AEF5C
:1002600001F0E866FF0E0114D8A4FF0E7AEF01F04A
:100270000110D8A4FF0E7AEF01F0066A056A100E8D
:10028000076E0234053606360350055E0450065AE2
:1002900005E20350052604500622D89001360236A6
:1002A000072EEFD701507AEF01F003500702F4CF89
:1002B00006F0F3CF05F004500802F4CF02F0F3CFBC
:1002C00001F003500802F3500626F4500122E86AB8
:1002D000022204500702F3500626F4500122E86A75
:1002E000022205507AEF01F0E96EFB6A1250FA6EB5
:1002F0001150F96E000104001200400ED36EFF0E83
:10030000926E9384946A070EC16E870EC06E0C0EB7
:10031000BD6E070ECA6EFF0ECB6E640E246E256A8C
:100320000A0E266E276A050E366E376A320E386E52
:10033000396A050EB06FB16B0A0EB26FB36B0F0E58
:10034000B46FB56B100EB66FB76B120EB86FB96B9A
:10035000140EBA6FBB6B160EBC6FBD6B180EBE6F62
:10036000BF6B1A0EC06FC16B1C0EC26FC36B1E0E2B
:10037000C46FC56B200EC66FC76B220EC86FC96BEA
:10038000230ECA6FCB6B280ECC6FCD6B2D0ECE6FAC
:10039000CF6B320ED06FD16B370ED26FD36B3C0E5A
:1003A000D46FD56B410ED66FD76B460ED86FD96B15
:1003B0004B0EDA6FDB6B500EDC6FDD6B550EDE6FB4
:1003C000DF6B5A0EE06FE16B5F0EE26FE36B640E62
:1003D000E46FE56BDB0E7A6E130E7B6EF10E7C6EB6
:1003E0000F0E7D6EE30E7E6E0C0E7F6E680E806FBC
:1003F0000C0E816F730E826F0B0E836F7E0E846FF7
:100400000A0E856FBC0E866F090E876FF90E886F16
:10041000080E896F4B0E8A6F080E8B6FB00E8C6FB3
:10042000070E8D6F160E8E6F070E8F6F9A0E906FE0
:10043000060E916F1E0E926F060E936FDF0E946F75
:10044000050E956FE60E966F040E976F1B0E986F54
:10045000040E996F760E9A6F030E9B6FEE0E9C6FD3
:10046000020E9D6F7F0E9E6F020E9F6F220EA06F79
:10047000020EA16FD40EA26F010EA36F940EA46F93
:10048000010EA56F5E0EA66F010EA76F300EA86F4E
:10049000010EA96F0A0EAA6F010EAB6FE90EAC6FC9
:1004A000AD6BCC0EAE6FAF6B640E2A6E2B6A640E12
:1004B0003C6E3D6A2AB0BD882AA0BD982AB2BD8A8A
:1004C0002AA2BD9A2AC001F02BC002F0020EA3DEC0
:1004D000BE6E326A336A32C001F033C002F0046A81
:1004E0000A0EADDED8A477EF02F0326A336A322A00
:1004F000D8B4332A090EC26E020E4FDE566E02C009
:1005000057F056C007F057C008F0190E036E046A82
:10051000CCDE136E06C014F013C001F014C002F05C
:10052000FF0E036E046AA9DE566E02C057F0DEECC1
:1005300003F055EC06F07AEC08F074C009F0F50E03
:10054000036E046A020E03EC00F00D0EC26E030E81
:1005500024DE206E02C021F0E5EC08F0DFEC09F0AB
:1005600020C007F021C008F02C0E036E046A9DDE47
:10057000136E06C014F013C001F014C002F0036A39
:10058000040E046E7ADE2C6E02C02DF020C007F03F
:1005900021C008F0290E036E046A87DE136E06C0C0
:1005A00014F0D8901430456E1330446E040081B4BA
:1005B000EDEF02F007EC09F02AB0BD882AA0BD9843
:1005C0002AB2BD8A2AA2BD9A2AC001F02BC002F02D
:1005D000020E21DEBE6E01EF03F018EC0AF03CB013
:1005E000BD883CA0BD983CB2BD8A3CA2BD9A3CC02F
:1005F00001F03DC002F0020E0EDEBE6E640EE5ECB0
:1006000000F0FE0E4BEC00F0010E4BEC00F0540E2F
:100610004BEC00F0650E4BEC00F06D0E4BEC00F077
:10062000700E4BEC00F03A0E4BEC00F0200E4BEC51
:1006300000F00A6A56C005F057C006F0940E116E1D
:10064000126A9FEC00F0200E4BEC00F00A6A52C0D8
:1006500005F053C006F0940E116E126A9FEC00F084
:10066000200E4BEC00F00A6A68C005F069C006F085
:10067000940E116E126A9FEC00F0FE0E4BEC00F02F
:10068000C00E4BEC00F00A6A74C005F075C006F0AD
:10069000940E116E126A9FEC00F0FE0E4BEC00F00F
:1006A000940E4BEC00F0500E4BEC00F0720E4BEC45
:1006B00000F0650E4BEC00F0730E4BEC00F0730E87
:1006C0004BEC00F0750E4BEC00F0720E4BEC00F0B2
:1006D000650E4BEC00F03A0E4BEC00F00A6A44C099
:1006E00005F045C006F0940E116E126A9FEC00F002
:1006F000200E4BEC00F00A6A42C005F043C006F041
:10070000940E116E126A9FEC00F0040081B4ADEFFC
:1007100003F0FE0E4BEC00F0D40E4BEC00F0460E56
:100720004BEC00F06C0E4BEC00F06F0E4BEC00F05D
:10073000770E4BEC00F0200E4BEC00F0200E4BEC53
:1007400000F00A6A2AC005F02BC006F0940E116E64
:10075000126A9FEC00F0DBEF03F0FE0E4BEC00F0B2
:10076000D40E4BEC00F0500E4BEC00F0720E4BEC44
:1007700000F0650E4BEC00F0730E4BEC00F0730EC6
:100780004BEC00F0750E4BEC00F0720E4BEC00F0F1
:10079000650E4BEC00F0200E4BEC00F0200E4BEC05
:1007A00000F00A6A3CC005F03DC006F0940E116EE0
:1007B000126A9FEC00F08FD60300FED7010EC26EC6
:1007C000000ECDEC00F0486E02C049F0016ADC0E6C
:1007D000026E48C003F049C004F03DEC01F0136E16
:1007E00002C014F013C007F014C008F0280E036E06
:1007F000046A55EC01F0136E06C014F0980E135CF9
:100800004E6E080E14584F6E4EC001F04FC002F0ED
:100810007BC004F07A5016EC01F0136E4EC001F06C
:100820004FC002F0B1C004F0B0511CEC01F0156EE5
:1008300013C001F0155038EC01F0156E166E04006F
:1008400015501610D8B427EF04F054EF06F0306AB4
:10085000316A30C001F031C002F0046A130E16ECA8
:1008600001F0D8A4BAEF04F0D8903034E96E3134F6
:10087000EA6E7A0EE926000EEA22EFCF13F0ECCFF3
:1008800014F04EC001F04FC002F014C004F0135039
:100890001CEC01F0136E010E3024156E000E312099
:1008A000166ED8901534E96E1634EA6E7A0EE92683
:1008B000000EEA22EFCF15F0ECCF16F04EC001F09B
:1008C0004FC002F016C004F0155013EC01F0156E85
:1008D00013C001F0155031EC01F0156E166E0400D6
:1008E00015501610D8B4B5EF04F0010E3024136E75
:1008F000000E3120146ED8901334E96E1434EA6E71
:100900007A0EE926000EEA22EFCF4AF0ECCF4BF048
:10091000D8903034E96E3134EA6E7A0EE926000E52
:10092000EA22EFCF4CF0ECCF4DF0D8903034E96EA6
:100930003134EA6EB00EE926000EEA22EFCF54F011
:10094000ECCF55F0010E3024136E000E3120146EE2
:10095000D8901334E96E1434EA6EB00EE926000E16
:10096000EA22EFCF5AF0ECCF5BF0302AD8B4312A2C
:10097000D8A46FD75AC001F05BC002F0046A0F0E12
:1009800019EC01F0136E54C001F055C002F0046A76
:10099000230E13EC01F0156E13C001F0155038EC66
:1009A00001F0156E166E040015501610D8B449EFFC
:1009B00005F05AC007F05BC008F0640E036E046ACD
:1009C00055EC01F0136E06C014F04A504E5C156EE3
:1009D0004B504F58166E15C007F016C008F0640E45
:1009E000036E046A55EC01F0156E06C016F04A500D
:1009F0004C5C176E4B504D58186E15C001F016C068
:100A000002F017C003F018C004F03DEC01F0176EBF
:100A100002C018F017C007F018C008F0050E036EEA
:100A2000046A55EC01F0176E06C018F01750135CFD
:100A3000176E18501458186E17C001F018C002F045
:100A40000A0E036E046A3DEC01F05C6E02C05DF0BC
:100A5000FE0E4BEC00F0D40E4BEC00F0680E4BECAD
:100A600000F0650E4BEC00F0720E4BEC00F0650EE2
:100A70004BEC00F0200E4BEC00F00A6A5CC005F075
:100A80005DC006F0940E116E126A9FEC00F0FCEF50
:100A900005F054C001F055C002F0046A0F0E10ECCE
:100AA00001F0136E54C001F055C002F0046A220E2A
:100AB00010EC01F0156E13C001F0155038EC01F088
:100AC000156E166E040015501610D8B4ADEF05F073
:100AD0005AC007F05BC008F0640E036E046A55EC60
:100AE00001F0136E06C014F04A504E5C156E4B5068
:100AF0004F58166E15C007F016C008F0640E036E4E
:100B0000046A55EC01F0156E06C016F04A504C5CB4
:100B1000176E4B504D58186E15C001F016C002F0FC
:100B200017C003F018C004F03DEC01F0176E02C0CE
:100B300018F01750135C176E18501458186E17C021
:100B400001F018C002F00A0E036E046A3DEC01F0D9
:100B50005C6E02C05DF0FCEF05F05AC007F05BC0B0
:100B600008F0640E036E046A55EC01F0136E06C0C3
:100B700014F04A504E5C156E4B504F58166E15C00F
:100B800007F016C008F0020E036E046A55EC01F07F
:100B9000156E06C016F015C007F016C008F0640EFA
:100BA000036E046A55EC01F0156E06C016F04A504B
:100BB0004C5C176E4B504D58186E15C001F016C0A6
:100BC00002F017C003F018C004F03DEC01F0176EFE
:100BD00002C018F01750135C176E18501458186E96
:100BE00017C001F018C002F00A0E036E046A3DEC53
:100BF00001F05C6E02C05DF05CC001F05DC002F00F
:100C00000A0E036E046A3DEC01F0526E02C053F00E
:100C10005CC001F05DC002F00A0E036E046A3DEC98
:100C200001F005C058F006C059F058C001F059C095
:100C300002F0046A080E1CEC01F0D8A425EF06F0BF
:100C4000522AD8B4532A506A516A58C001F059C088
:100C500002F0046A080E1CEC01F0136E58C001F09B
:100C600059C002F0046A020E16EC01F0156E13C0B2
:100C700001F0155031EC01F0156E166E04001550A0
:100C80001610D8B447EF06F0050E506E516A58C0E2
:100C900001F059C002F0046A030E13EC01F0D8A46D
:100CA00054EF06F0506A516A1200050EC26E010E32
:100CB000CDEC00F05E6E02C05FF0016ADC0E026EE9
:100CC0005EC003F05FC004F03DEC01F0136E02C0A3
:100CD00014F013C007F014C008F0280E036E046A65
:100CE00055EC01F0136E06C014F0980E135C646EA0
:100CF000080E1458656E64C001F065C002F07BC038
:100D000004F07A5016EC01F0136E64C001F065C077
:100D100002F0A1C004F0A0511CEC01F0156E13C04C
:100D200001F0155038EC01F0156E166E04001550E8
:100D30001610D8B49EEF06F079EF08F0306A316AE9
:100D400030C001F031C002F0046A130E16EC01F05D
:100D5000D8A431EF07F0D8903034E96E3134EA6E20
:100D60007A0EE926000EEA22EFCF13F0ECCF14F052
:100D700064C001F065C002F014C004F013501CEC14
:100D800001F0136E010E3024156E000E3120166E28
:100D9000D8901534E96E1634EA6E7A0EE926000E04
:100DA000EA22EFCF15F0ECCF16F064C001F065C079
:100DB00002F016C004F0155013EC01F0156E13C0CC
:100DC00001F0155031EC01F0156E166E040015504F
:100DD0001610D8B42CEF07F0010E3024136E000E5D
:100DE0003120146ED8901334E96E1434EA6E7A0E02
:100DF000E926000EEA22EFCF60F0ECCF61F0D89048
:100E00003034E96E3134EA6E7A0EE926000EEA22B9
:100E1000EFCF62F0ECCF63F0D8903034E96E31342C
:100E2000EA6EB00EE926000EEA22EFCF6AF0ECCFB0
:100E30006BF0010E3024136E000E3120146ED8902A
:100E40001334E96E1434EA6EB00EE926000EEA227D
:100E5000EFCF70F0ECCF71F0302AD8B4312AD8A49B
:100E60006FD770C001F071C002F0046A0F0E19EC68
:100E700001F0136E6AC001F06BC002F0046A230E29
:100E800013EC01F0156E13C001F0155038EC01F0B1
:100E9000156E166E040015501610D8B49FEF07F0AB
:100EA00070C007F071C008F0640E036E046A55EC60
:100EB00001F0136E06C014F06050645C156E615052
:100EC0006558166E15C007F016C008F0050E036EC3
:100ED000046A55EC01F0156E06C016F015C007F057
:100EE00016C008F0640E036E046A55EC01F0156E2E
:100EF00006C016F06050625C176E61506358186E41
:100F000015C001F016C002F017C003F018C004F0BD
:100F10003DEC01F0176E02C018F01750135C176E0D
:100F200018501458186E17C001F018C002F00A0EBD
:100F3000036E046A3DEC01F0726E02C073F06AC089
:100F400001F06BC002F0046A0F0E10EC01F0136E9A
:100F50006AC001F06BC002F0046A220E10EC01F0CE
:100F6000156E13C001F0155038EC01F0156E166EB9
:100F7000040015501610D8B403EF08F070C007F045
:100F800071C008F0640E036E046A55EC01F0136E34
:100F900006C014F06050645C156E61506558166EA2
:100FA00015C007F016C008F0640E036E046A55EC15
:100FB00001F0156E06C016F06050625C176E61504D
:100FC0006358186E15C001F016C002F017C003F088
:100FD00018C004F03DEC01F0176E02C018F0175075
:100FE000135C176E18501458186E17C001F018C013
:100FF00002F00A0E036E046A3DEC01F0726E02C04C
:1010000073F052EF08F070C007F071C008F0640E82
:10101000036E046A55EC01F0136E06C014F06050C4
:10102000645C156E61506558166E15C007F016C0E9
:1010300008F0020E036E046A55EC01F0156E06C04E
:1010400016F015C007F016C008F0640E036E046AAF
:1010500055EC01F0156E06C016F06050625C176E1C
:1010600061506358186E15C001F016C002F017C029
:1010700003F018C004F03DEC01F0176E02C018F048
:101080001750135C176E18501458186E17C001F0E3
:1010900018C002F00A0E036E046A3DEC01F0726E95
:1010A00002C073F072C001F073C002F00A0E036E4A
:1010B000046A3DEC01F0686E02C069F072C001F094
:1010C00073C002F00A0E036E046A3DEC01F005C025
:1010D00066F006C067F066C001F067C002F0046AFF
:1010E000050E1CEC01F0D8A479EF08F0682AD8B4FA
:1010F000692A120052C001F053C002F057C004F038
:10110000565019EC01F0D8A499EF08F074C001F022
:1011100075C002F0046A000E19EC01F0D8A497EF34
:1011200008F0010E745E000E755A99EF08F0746AAB
:10113000756A52C001F053C002F057C004F0565017
:1011400013EC01F0D8A4C9EF08F068C001F069C041
:1011500002F0046A460E13EC01F0D8A4C5EF08F0C3
:1011600074C001F075C002F0046AFE0E13EC01F0C9
:10117000D8A4C0EF08F0742AD8B4752AC3EF08F0D9
:10118000FE0E746E756AC9EF08F0010E745E000EF3
:10119000755A74C001F075C002F0046AFE0E19ECB5
:1011A00001F0D8A4D7EF08F0FE0E746E756A56C031
:1011B00001F057C002F0046A000E1FEC01F0D8A441
:1011C000E4EF08F0746A756A1200110EC26E040E24
:1011D000CDEC00F0226E02C023F022C007F023C045
:1011E00008F0320E036E046A55EC01F0136E06C06F
:1011F00014F013C001F014C002F09A0E036E040E36
:10120000046E3DEC01F02E6E02C02FF0120032C0D1
:1012100001F033C002F0046A040E1FEC01F0D8A400
:10122000DEEF09F02EC001F02FC002F02DC004F057
:101230002C5013EC01F0D8A466EF09F02AC001F09D
:101240002BC002F0046A780E13EC01F0D8A463EF0F
:1012500009F02E502C5C136E2F502D58146E13C0B5
:1012600001F014C002F0046A020E19EC01F0D8A4D7
:101270005EEF09F02E502C5C136E2F502D58146E1B
:10128000040E076E086A13C003F014C004F055EC96
:1012900001F0136E06C014F013C001F014C002F088
:1012A000050E036E046A3DEC01F0136E02C014F0EB
:1012B00013502A2614502B2261EF09F02A2AD8B4A1
:1012C0002B2A66EF09F0780E2A6E2B6A2EC001F0E9
:1012D0002FC002F02DC004F02C5019EC01F0D8A45E
:1012E000BBEF09F02AC001F02BC002F0046A320EF5
:1012F00019EC01F0D8A4B8EF09F02C502E5C136E55
:101300002D502F58146E13C001F014C002F0046A5F
:10131000020E19EC01F0D8A4B2EF09F02C502E5CAB
:10132000136E2D502F58146E040E076E086A13C0EA
:1013300003F014C004F055EC01F0136E06C014F075
:1013400013C001F014C002F0050E036E046A3DECF8
:1013500001F0136E02C014F013502A5E14502B5A81
:10136000B6EF09F0010E2A5E000E2B5ABBEF09F012
:10137000320E2A6E2B6A2EC001F02FC002F02DC053
:1013800004F02C5010EC01F0136E2CC001F02DC0B5
:1013900002F0046A000E10EC01F0156E13C001F0AB
:1013A000155031EC01F0156E166E04001550161034
:1013B000D8B4DEEF09F0320E2A6E2B6A1200110E3D
:1013C000C26E040ECDEC00F03A6E02C03BF03AC0A3
:1013D00007F03BC008F03C0E036E046A55EC01F0C8
:1013E000136E06C014F013C001F014C002F0380EE2
:1013F000036E046A3DEC01F0136E02C014F0230E7C
:10140000135C406E000E1458416E3AC007F03BC0AA
:1014100008F0170E036E046A55EC01F0136E06C057
:1014200014F0A20E1324426E000E1420436E12001C
:1014300042C001F043C002F045C004F0445013EC38
:1014400001F0D8A470EF0AF03CC001F03DC002F0FA
:10145000046A780E13EC01F0D8A46DEF0AF0425044
:10146000445C136E43504558146E13C001F014C011
:1014700002F0030E046EE80E19EC01F0D8A45AEF46
:101480000AF04250445C136E43504558146E13C02A
:1014900001F014C002F0BC0E036E020E046E3DECAF
:1014A00001F0136E02C014F013503C2614503D227C
:1014B0005DEF0AF03C2AD8B43D2A3CC001F03DC0A3
:1014C00002F0046A780E19EC01F0D8A46BEF0AF070
:1014D000780E3C6E3D6A70EF0AF0780E3C6E3D6A05
:1014E00042C001F043C002F045C004F0445019EC82
:1014F00001F0D8A4C9EF0AF03CC001F03DC002F0F1
:10150000046A320E19EC01F0D8A4C6EF0AF0445078
:10151000425C136E45504358146E13C001F014C062
:1015200002F0030E046EE80E19EC01F0D8A4B2EF3D
:101530000AF04450425C136E45504358146E13C079
:1015400001F014C002F0BC0E036E020E046E3DECFE
:1015500001F0136E02C014F013503C5E14503D5A5B
:10156000B6EF0AF0010E3C5E000E3D5A44C001F099
:1015700045C002F0046A000E1FEC01F0D8A4C4EFCD
:101580000AF0320E3C6E3D6AC9EF0AF0320E3C6E34
:041590003D6A12009E
:020000040030CA
:08000000FFF11FF3FFFDBBFF40
:00000001FF
