:020000040000FA
:10000000006AE0EF01F00A6E420E016E0F0E026E02
:10001000A0EC01F0D8B4CA90D8A4CA80FC0FD8A034
:10002000CA92D8B0CA82400E016E420E026E0F0E06
:10003000056E066ACAB028D8CAB226D8A2EC01F06A
:100040000104CB6E0150036E0250046E0950076E1E
:10005000086E093C086AB8EC01F006500A2E0BD075
:10006000BE6E0C0EBD6E05BEBD8A05BCBD889494E7
:10007000CA84DDEF01F0BB6E0C0EBA6E05BEBA8A03
:1000800005BCBA889492F4D700D8D89005320232D1
:1000900001321200E950086E829682908290949606
:1000A000949094900F0E9416085000B222D03A0EFD
:1000B000026E980E57EC01F0330E076E2FD8130E18
:1000C000026E880E57EC01F029D8640E56EC01F050
:1000D00025D8640E56EC01F0220E076E1FD8280EAC
:1000E00007D80C0E05D8060E03D80082085001D0A0
:1000F0000080076E00A00BD0829003080EE30DD89D
:10010000070E026ED00E57EC01F0D880120000806E
:10011000FE08D8B4DDEF01F0828000A00090828656
:100120000F0E82160750F00B82128296073A00B02B
:10013000F5D7320E56EC01F0D880DDEF01F0066AFB
:10014000056E198E270E046E100E0CD8030E046E69
:10015000E80E08D8046A640E05D8046A0A0E02D8AC
:1001600005500BD0036E0650026E0550016EA0ECD8
:1001700001F00166199E19BE1200300F076E1EC0F5
:10018000EAFF1EC0E2FF1C50E96E120FE16E090E7D
:10019000086ED8900CD80732082EFCD7D88007D824
:1001A000030E026EE80E57EC01F0DDEF01F019A628
:1001B0000BD0EF501A1019A41A18EF6EE7501A104E
:1001C000D8A01A18E76E0AD0EF501A10D8A01A1843
:1001D00019B41A18EF6E1A1CE71600D01934060B62
:1001E000FC0FF66EF76A010EF722F86A0900F5CFE8
:1001F00002F00800F550000057EF01F0017F031FE7
:1002000000460CE3199E0A50D8B4198E050E096EEB
:10021000270E046E100E0CD8030E046EE80E08D8DC
:10022000046A640E05D8046A0A0E02D8055008D084
:10023000036E0650026E0550016EA0EC01F00150F5
:10024000016E094E199E0A5003E0095CD8B01200F5
:100250000150D8A4199E19BE1200300FD7EF01F03B
:10026000E836E8363C0B0109C212C009C216C0507C
:10027000F80B0309C06E000E026E320E57EC01F04F
:10028000C282C2B2FED7C450026EC350DDEF01F08D
:10029000046A036EFF0E0326D8A00426D8A0DDEF63
:1002A00001F0030E026EDF0E02D8F4D7026AE80FE7
:1002B000016E021EFC0ED8A003D00126D8B0FDD7D7
:1002C00001260400023EF9D701B000D001A202D0FD
:1002D000000000D01200D89002320132FF0FFBE282
:1002E0000150DDEF01F0036E020E0ED0036E030E1F
:1002F0000BD0036E010E08D0036E060E05D0036E00
:10030000040E02D0036E050E096E0450025C02E179
:100310000350015C040ED8B0010ED8B4020E0914CB
:10032000D8A4FF0EDDEF01F0E866FF0E0114D8A49B
:10033000FF0EDDEF01F00110D8A4FF0EDDEF01F09C
:10034000066A056A100E076E02340536063603503B
:10035000055E0450065A05E20350052604500622A5
:10036000D89001360236072EEFD70150DDEF01F0AD
:1003700003500702F4CF06F0F3CF05F00450080253
:10038000F4CF02F0F3CF01F003500802F350062639
:10039000F4500122E86A022204500702F3500626B4
:1003A000F4500122E86A02220550DDEF01F0E96E07
:1003B000FB6A1250FA6E1150F96E0001040012002F
:1003C000400ED36EFF0E926E938293849386939821
:1003D000946A070EC16E870EC06E0C0EBD6E070EBE
:1003E000CA6EFF0ECB6E640E266E276A0A0E286E4A
:1003F000296A050E386E396A320E3A6E3B6A050E6E
:10040000B46FB56B0A0EB66FB76B0F0EB86FB96BE2
:10041000100EBA6FBB6B120EBC6FBD6B140EBE6FAD
:10042000BF6B160EC06FC16B180EC26FC36B1A0E76
:10043000C46FC56B1C0EC66FC76B1E0EC86FC96B31
:10044000200ECA6FCB6B220ECC6FCD6B230ECE6FFE
:10045000CF6B280ED06FD16B2D0ED26FD36B320EB7
:10046000D46FD56B370ED66FD76B3C0ED86FD96B68
:10047000410EDA6FDB6B460EDC6FDD6B4B0EDE6F11
:10048000DF6B500EE06FE16B550EE26FE36B5A0EBF
:10049000E46FE56B5F0EE66FE76B640EE86FE96B88
:1004A000DB0E7E6E130E7F6EF10E806F0F0E816F6E
:1004B000E30E826F0C0E836F680E846F0C0E856FD7
:1004C000730E866F0B0E876F7E0E886F0A0E896F14
:1004D000BC0E8A6F090E8B6FF90E8C6F080E8D6F34
:1004E0004B0E8E6F080E8F6FB00E906F070E916FD0
:1004F000160E926F070E936F9A0E946F060E956FFD
:100500001E0E966F060E976FDF0E986F050E996F91
:10051000E60E9A6F040E9B6F1B0E9C6F040E9D6F70
:10052000760E9E6F030E9F6FEE0EA06F020EA16FF0
:100530007F0EA26F020EA36F220EA46F020EA56F94
:10054000D40EA66F010EA76F940EA86F010EA96FAF
:100550005E0EAA6F010EAB6F300EAC6F010EAD6F69
:100560000A0EAE6F010EAF6FE90EB06FB16BCC0E1D
:10057000B26FB36B640E2C6E2D6A640E3E6E3F6AD2
:100580002CB0BD882CA0BD982CB2BD8A2CA2BD9ADF
:100590002CC001F02DC002F0020EA0DEBE6E346A47
:1005A000356A090EC26E020E5BDE5A6E02C05BF047
:1005B0005AC007F05BC008F0190E036E046AD8DE5B
:1005C000136E06C014F013C001F014C002F0FF0E49
:1005D000036E046AB5DE5A6E02C05BF062EC05F091
:1005E000D9EC07F031EC0AF078C009F0F50E036E93
:1005F000046A020E03EC00F00D0EC26E030E30DE34
:10060000206E02C021F0110EC26E040E29DE226E91
:1006100002C023F0D6EC0AF0CBEC0BF020C007F0C0
:1006200021C008F02C0E036E046AA2DE136E06C011
:1006300014F013C001F014C002F0036A040E046E3B
:100640007FDE2E6E02C02FF022C007F023C008F01C
:10065000290E036E046A8CDE136E06C014F0D89067
:100660001432133213C001F014C002F0F40E036E02
:10067000010E046E65DE136E02C014F013C007F0A5
:1006800014C008F0F40E036E010E046E71DE486EA5
:1006900006C049F0040081B461EF03F0F8EC0AF001
:1006A0002CB0BD882CA0BD982CB2BD8A2CA2BD9ABE
:1006B0002CC001F02DC002F0020E10DEBE6E76EFEF
:1006C00003F047EC0CF03EB0BD883EA0BD983EB2B2
:1006D000BD8A3EA2BD9A3EC001F03FC002F0020EAC
:1006E0006EEC01F0BE6E640E48EC01F0FE0E4BECB9
:1006F00000F0010E4BEC00F0540E4BEC00F0650ED8
:100700004BEC00F06D0E4BEC00F0700E4BEC00F07B
:100710003A0E4BEC00F0200E4BEC00F00A6A5AC087
:1007200005F05BC006F0940E116E126A02EC01F047
:10073000200E4BEC00F00A6A56C005F057C006F0D8
:10074000940E116E126A02EC01F0200E4BEC00F0D8
:100750000A6A6CC005F06DC006F0940E116E126A44
:1007600002EC01F0200E4BEC00F00A6A78C005F0B4
:1007700079C006F0940E116E126A02EC01F0FE0EC2
:100780004BEC00F0C00E4BEC00F0460E4BEC00F0D2
:100790006C0E4BEC00F06F0E4BEC00F0770E4BEC58
:1007A00000F03A0E4BEC00F0200E4BEC00F00A6A21
:1007B0002EC001F02FC002F00A0E036E046AA0ECF6
:1007C00001F0136E02C014F013C005F014C006F05F
:1007D000940E116E126A02EC01F02E0E4BEC00F03A
:1007E0000A6A2EC001F02FC002F00A0E036E046ADE
:1007F000A0EC01F005C013F006C014F013C005F022
:1008000014C006F0940E116E126A02EC01F0200E74
:100810004BEC00F0200E4BEC00F00A6A30C001F007
:1008200031C002F00A0E036E046AA0EC01F0136EF0
:1008300002C014F013C005F014C006F0940E116E3F
:10084000126A02EC01F02E0E4BEC00F00A6A30C086
:1008500001F031C002F00A0E036E046AA0EC01F050
:1008600005C013F006C014F013C005F014C006F064
:10087000940E116E126A02EC01F0FE0E4BEC00F0C9
:10088000940E4BEC00F0500E4BEC00F0720E4BEC63
:1008900000F0650E4BEC00F0730E4BEC00F0730EA5
:1008A0004BEC00F0750E4BEC00F0720E4BEC00F0D0
:1008B000650E4BEC00F03A0E4BEC00F00A6A48C0B3
:1008C00001F049C002F0E80E036E030E046EA0ECC6
:1008D00001F0136E02C014F013C005F014C006F04E
:1008E000940E116E126A02EC01F02E0E4BEC00F029
:1008F0000A6A48C001F049C002F0640E036E046A3F
:10090000A0EC01F0136E02C014F013C001F014C08B
:1009100002F00A0E036E046AA0EC01F005C013F0A9
:1009200006C014F013C005F014C006F0940E116E4A
:10093000126A02EC01F0200E4BEC00F00A6A44C08F
:1009400001F045C002F0E80E036E030E046EA0EC49
:1009500001F0136E02C014F013C005F014C006F0CD
:10096000940E116E126A02EC01F02E0E4BEC00F0A8
:100970000A6A44C001F045C002F0640E036E046AC6
:10098000A0EC01F0136E02C014F013C001F014C00B
:1009900002F00A0E036E046AA0EC01F005C013F029
:1009A00006C014F013C005F014C006F0940E116ECA
:1009B000126A02EC01F0040081B40CEF05F0FE0EA7
:1009C0004BEC00F0D40E4BEC00F0460E4BEC00F07C
:1009D0006C0E4BEC00F06F0E4BEC00F0770E4BEC16
:1009E00000F0200E4BEC00F0700E4BEC00F0770E98
:1009F0004BEC00F06D0E4BEC00F0200E4BEC00F0D9
:100A00000A6A2CC005F02DC006F0940E116E126A11
:100A100002EC01F043EF05F0FE0E4BEC00F0D40EBB
:100A20004BEC00F0500E4BEC00F0720E4BEC00F073
:100A3000650E4BEC00F0730E4BEC00F0730E4BECBC
:100A400000F0750E4BEC00F0720E4BEC00F0650EF2
:100A50004BEC00F0200E4BEC00F0700E4BEC00F075
:100A6000770E4BEC00F06D0E4BEC00F0200E4BECD3
:100A700000F00A6A3EC005F03FC006F0940E116E09
:100A8000126A02EC01F0810E1C6E0F0E1E6E100E2B
:100A90001A6E060E196E5BC006F05A50A0EC00F0FC
:100AA000200EBEEC00F06DC006F06C50A0EC00F023
:100AB0000A0EBEEC00F00D0EBEEC00F0D1EF02F01D
:100AC0000300FED7010EC26E000E30EC01F04C6E3A
:100AD00002C04DF0016ADC0E026E4CC003F04DC046
:100AE00004F0A0EC01F0136E02C014F013C007F084
:100AF00014C008F0280E036E046AB8EC01F0136EFF
:100B000006C014F0980E135C526E080E1458536E03
:100B100052C001F053C002F07FC004F07E5079EC67
:100B200001F0136E52C001F053C002F0B5C004F0E2
:100B3000B4517FEC01F0156E13C001F015509BEC21
:100B400001F0156E166E040015501610D8B4ABEFF8
:100B500005F0D8EF07F0326A336A32C001F033C0D3
:100B600002F0046A130E79EC01F0D8A43EEF06F00F
:100B7000D8903234E96E3334EA6E7E0EE926000EE8
:100B8000EA22EFCF13F0ECCF14F052C001F053C0C3
:100B900002F014C004F013507FEC01F0136E010E4C
:100BA0003224156E000E3320166ED8901534E96E7F
:100BB0001634EA6E7E0EE926000EEA22EFCF15F01B
:100BC000ECCF16F052C001F053C002F016C004F092
:100BD000155076EC01F0156E13C001F0155094EC31
:100BE00001F0156E166E040015501610D8B439EFCA
:100BF00006F0010E3224136E000E3320146ED890CE
:100C00001334E96E1434EA6E7E0EE926000EEA22F1
:100C1000EFCF4EF0ECCF4FF0D8903234E96E333452
:100C2000EA6E7E0EE926000EEA22EFCF50F0ECCFFE
:100C300051F0D8903234E96E3334EA6EB40EE926BE
:100C4000000EEA22EFCF58F0ECCF59F0010E32241B
:100C5000136E000E3320146ED8901334E96E1434E2
:100C6000EA6EB40EE926000EEA22EFCF5EF0ECCF7A
:100C70005FF0322AD8B4332AD8A46FD75EC001F00F
:100C80005FC002F0046A0F0E7CEC01F0136E58C0D6
:100C900001F059C002F0046A230E76EC01F0156EE3
:100CA00013C001F015509BEC01F0156E166E040098
:100CB00015501610D8B4CDEF06F05EC007F05FC037
:100CC00008F0640E036E046AB8EC01F0136E06C0FF
:100CD00014F04E50525C156E4F505358166E15C09E
:100CE00007F016C008F0640E036E046AB8EC01F059
:100CF000156E06C016F04E50505C176E4F5051588E
:100D0000186E15C001F016C002F017C003F018C02D
:100D100004F0A0EC01F0176E02C018F017C007F045
:100D200018C008F0050E036E046AB8EC01F0176EE7
:100D300006C018F01750135C176E18501458186E30
:100D400017C001F018C002F00A0E036E046AA0EC8E
:100D500001F0606E02C061F0FE0E4BEC00F0D40EAC
:100D60004BEC00F0680E4BEC00F0650E4BEC00F025
:100D7000720E4BEC00F0650E4BEC00F0200E4BECCD
:100D800000F00A6A60C005F061C006F0940E116EB2
:100D9000126A02EC01F080EF07F058C001F059C070
:100DA00002F0046A0F0E73EC01F0136E58C001F0EC
:100DB00059C002F0046A220E73EC01F0156E13C0E4
:100DC00001F015509BEC01F0156E166E04001550E5
:100DD0001610D8B431EF07F05EC007F05FC008F01E
:100DE000640E036E046AB8EC01F0136E06C014F0D2
:100DF0004E50525C156E4F505358166E15C007F08A
:100E000016C008F0640E036E046AB8EC01F0156EAB
:100E100006C016F04E50505C176E4F505158186E69
:100E200015C001F016C002F017C003F018C004F09E
:100E3000A0EC01F0176E02C018F01750135C176E8B
:100E400018501458186E17C001F018C002F00A0E9E
:100E5000036E046AA0EC01F0606E02C061F080EFE6
:100E600007F05EC007F05FC008F0640E036E046A0E
:100E7000B8EC01F0136E06C014F04E50525C156EC3
:100E80004F505358166E15C007F016C008F0020EEA
:100E9000036E046AB8EC01F0156E06C016F015C0BA
:100EA00007F016C008F0640E036E046AB8EC01F097
:100EB000156E06C016F04E50505C176E4F505158CC
:100EC000186E15C001F016C002F017C003F018C06C
:100ED00004F0A0EC01F0176E02C018F01750135C7C
:100EE000176E18501458186E17C001F018C002F091
:100EF0000A0E036E046AA0EC01F0606E02C061F09D
:100F000060C001F061C002F00A0E036E046AA0EC3A
:100F100001F0566E02C057F060C001F061C002F0EF
:100F20000A0E036E046AA0EC01F005C05CF006C076
:100F30005DF05CC001F05DC002F0046A080E7FEC59
:100F400001F0D8A4A9EF07F0562AD8B4572A546A5A
:100F5000556A5CC001F05DC002F0046A080E7FECC7
:100F600001F0136E5CC001F05DC002F0046A020E75
:100F700079EC01F0156E13C001F0155094EC01F0FE
:100F8000156E166E040015501610D8B4CBEF07F08E
:100F9000050E546E556A5CC001F05DC002F0046A33
:100FA000030E76EC01F0D8A4D8EF07F0546A556A26
:100FB0001200050EC26E010E30EC01F0626E02C02E
:100FC00063F0016ADC0E026E62C003F063C004F0DD
:100FD000A0EC01F0136E02C014F013C007F014C0AF
:100FE00008F0280E036E046AB8EC01F0136E06C018
:100FF00014F0980E135C686E080E1458696E68C081
:1010000001F069C002F07FC004F07E5079EC01F07D
:10101000136E68C001F069C002F0A5C004F0A451CD
:101020007FEC01F0156E13C001F015509BEC01F040
:10103000156E166E040015501610D8B422EF08F085
:1010400030EF0AF0326A336A32C001F033C002F086
:10105000046A130E79EC01F0D8A4B5EF08F0D8902B
:101060003234E96E3334EA6E7E0EE926000EEA224F
:10107000EFCF13F0ECCF14F068C001F069C002F0BC
:1010800014C004F013507FEC01F0136E010E3224F3
:10109000156E000E3320166ED8901534E96E163496
:1010A000EA6E7E0EE926000EEA22EFCF15F0ECCFB5
:1010B00016F068C001F069C002F016C004F01550C7
:1010C00076EC01F0156E13C001F0155094EC01F0B0
:1010D000156E166E040015501610D8B4B0EF08F057
:1010E000010E3224136E000E3320146ED890133488
:1010F000E96E1434EA6E7E0EE926000EEA22EFCF86
:1011000064F0ECCF65F0D8903234E96E3334EA6E97
:101110007E0EE926000EEA22EFCF66F0ECCF67F0F4
:10112000D8903234E96E3334EA6EB40EE926000EFC
:10113000EA22EFCF6EF0ECCF6FF0010E3224136E87
:10114000000E3320146ED8901334E96E1434EA6E16
:10115000B40EE926000EEA22EFCF74F0ECCF75F062
:10116000322AD8B4332AD8A46FD774C001F075C01E
:1011700002F0046A0F0E7CEC01F0136E6EC001F0F9
:101180006FC002F0046A230E76EC01F0156E13C0F6
:1011900001F015509BEC01F0156E166E0400155011
:1011A0001610D8B425EF09F074C007F075C008F028
:1011B000640E036E046AB8EC01F0136E06C014F0FE
:1011C0006450685C156E65506958166E15C007F05E
:1011D00016C008F0640E036E046AB8EC01F0156ED8
:1011E00006C016F06450665C176E65506758186E3E
:1011F00015C001F016C002F017C003F018C004F0CB
:10120000A0EC01F0176E02C018F017C007F018C06C
:1012100008F0050E036E046AB8EC01F0176E06C004
:1012200018F01750135C176E18501458186E17C02A
:1012300001F018C002F00A0E036E046AA0EC01F07F
:10124000766E02C077F0D8EF09F06EC001F06FC083
:1012500002F0046A0F0E73EC01F0136E6EC001F021
:101260006FC002F0046A220E73EC01F0156E13C019
:1012700001F015509BEC01F0156E166E0400155030
:101280001610D8B489EF09F074C007F075C008F0E3
:10129000640E036E046AB8EC01F0136E06C014F01D
:1012A0006450685C156E65506958166E15C007F07D
:1012B00016C008F0640E036E046AB8EC01F0156EF7
:1012C00006C016F06450665C176E65506758186E5D
:1012D00015C001F016C002F017C003F018C004F0EA
:1012E000A0EC01F0176E02C018F01750135C176ED7
:1012F00018501458186E17C001F018C002F00A0EEA
:10130000036E046AA0EC01F0766E02C077F0D8EFAD
:1013100009F074C007F075C008F0640E036E046A2B
:10132000B8EC01F0136E06C014F06450685C156EE2
:1013300065506958166E15C007F016C008F0020E09
:10134000036E046AB8EC01F0156E06C016F015C005
:1013500007F016C008F0640E036E046AB8EC01F0E2
:10136000156E06C016F06450665C176E65506758BF
:10137000186E15C001F016C002F017C003F018C0B7
:1013800004F0A0EC01F0176E02C018F01750135CC7
:10139000176E18501458186E17C001F018C002F0DC
:1013A0000A0E036E046AA0EC01F0766E02C077F0BC
:1013B00076C001F077C002F00A0E036E046AA0EC5A
:1013C00001F06C6E02C06DF076C001F077C002F0E3
:1013D0000A0E036E046AA0EC01F005C072F006C0AC
:1013E00073F072C001F073C002F0046A080E7FEC63
:1013F00001F0D8A401EF0AF06C2AD8B46D2A6A6A09
:101400006B6A72C001F073C002F0046A080E7FECD0
:1014100001F0136E72C001F073C002F0046A020E94
:1014200079EC01F0156E13C001F0155094EC01F049
:10143000156E166E040015501610D8B423EF0AF07E
:10144000050E6A6E6B6A72C001F073C002F0046A26
:10145000030E76EC01F0D8A430EF0AF06A6A6B6AEA
:1014600012006CC001F06DC002F05BC004F05A5075
:101470007CEC01F0D8A46DEF0AF078C001F079C0DF
:1014800002F0046A000E7CEC01F0D8A46BEF0AF0C5
:101490005A506C5C136E5B506D58146E13C001F0A3
:1014A00014C002F0046A030E7CEC01F0D8A465EFCE
:1014B0000AF05A506C5C136E5B506D58146E1350EA
:1014C000785E1450795A69EF0AF0010E785E000ECA
:1014D000795A6DEF0AF0786A796A6CC001F06DC0D4
:1014E00002F05BC004F05A5076EC01F0D8A4BAEFD9
:1014F0000AF06CC001F06DC002F0046A460E76EC92
:1015000001F0D8A4B6EF0AF078C001F079C002F07B
:10151000046AFE0E76EC01F0D8A4B1EF0AF06C502C
:101520005A5C136E6D505B58146E13C001F014C0FA
:1015300002F0046A030E7CEC01F0D8A4ACEF0AF0D0
:101540006C505A5C136E6D505B58146E13507826B5
:1015500014507922AFEF0AF0782AD8B4792AB4EF80
:101560000AF0FE0E786E796ABAEF0AF0010E785E24
:10157000000E795A78C001F079C002F0046AFE0EBC
:101580007CEC01F0D8A4C8EF0AF0FE0E786E796A00
:101590005AC001F05BC002F0046A000E82EC01F058
:1015A000D8A4D5EF0AF0786A796A1200250EC26EC7
:1015B000090E30EC01F0246E02C025F024C007F0C3
:1015C00025C008F0320E036E046AB8EC01F0136E09
:1015D00006C014F013C001F014C002F09A0E036E9E
:1015E000040E046EA0EC01F0306E02C031F0120067
:1015F00034C001F035C002F0046A030E82EC01F041
:10160000D8A405EF0BF0346A356A342AD8B4352AE9
:1016100034C001F035C002F0046A010E82EC01F022
:10162000D8A4CAEF0BF030C001F031C002F02FC0D7
:1016300004F02E5076EC01F0D8A467EF0BF02CC02C
:1016400001F02DC002F0046A780E76EC01F0D8A407
:1016500064EF0BF030502E5C136E31502F58146E27
:1016600013C001F014C002F0046A020E7CEC01F019
:10167000D8A45FEF0BF030502E5C136E31502F5812
:10168000146E020E076E086A13C003F014C004F053
:10169000B8EC01F0136E06C014F013C001F014C0D2
:1016A00002F0030E036E046AA0EC01F0136E02C098
:1016B00014F013502C2614502D2262EF0BF02C2A1C
:1016C000D8B42D2A67EF0BF0780E2C6E2D6A30C03F
:1016D00001F031C002F02FC004F02E507CEC01F07C
:1016E000D8A4BCEF0BF02CC001F02DC002F0046AAE
:1016F000320E7CEC01F0D8A4B9EF0BF02E50305C28
:10170000136E2F503158146E13C001F014C002F044
:10171000046A020E7CEC01F0D8A4B3EF0BF02E505B
:10172000305C136E2F503158146E020E076E086A2B
:1017300013C003F014C004F0B8EC01F0136E06C03F
:1017400014F013C001F014C002F0030E036E046A1B
:10175000A0EC01F0136E02C014F013502C5E145074
:101760002D5AB7EF0BF0010E2C5E000E2D5ABCEF78
:101770000BF0320E2C6E2D6A2EC001F02FC002F03D
:10178000046A000E82EC01F0D8A4CAEF0BF0320E0E
:101790002C6E2D6A1200290EC26E0A0E30EC01F07A
:1017A0003C6E02C03DF03CC007F03DC008F03C0E6E
:1017B000036E046AB8EC01F0136E06C014F013C097
:1017C00001F014C002F0380E036E046AA0EC01F0C0
:1017D000136E02C014F0230E135C426E000E1458F8
:1017E000436E3CC007F03DC008F0170E036E046A5C
:1017F000B8EC01F0136E06C014F0A20E1326000E12
:10180000142213C001F014C002F0320E036E046AF9
:10181000A0EC01F005C046F006C047F03CC007F060
:101820003DC008F0170E036E046AB8EC01F0136EA9
:1018300006C014F0A20E1326000E142213C001F0ED
:1018400014C002F0F40E036E010E046EA0EC01F061
:10185000446E02C045F046C001F047C002F0046A81
:10186000FA0E7FEC01F0D8A439EF0CF0442AD8B47A
:10187000452A44C007F045C008F0F40E036E010E7F
:10188000046EB8EC01F0446E06C045F0120044C08E
:1018900001F045C002F049C004F0485076EC01F078
:1018A000D8A49FEF0CF03EC001F03FC002F0046AE4
:1018B000780E76EC01F0D8A49CEF0CF04450485C14
:1018C000136E45504958146E13C001F014C002F055
:1018D000020E046EBC0E7CEC01F0D8A489EF0CF073
:1018E0004450485C136E45504958146E13C001F0C3
:1018F00014C002F0F40E036E010E046EA0EC01F0B1
:10190000136E02C014F013503E2614503F228CEF89
:101910000CF03E2AD8B43F2A3EC001F03FC002F08E
:10192000046A780E7CEC01F0D8A49AEF0CF0780EE3
:101930003E6E3F6A9FEF0CF0780E3E6E3F6A44C0E9
:1019400001F045C002F049C004F048507CEC01F0C1
:10195000D8A4F8EF0CF03EC001F03FC002F0046ADA
:10196000320E7CEC01F0D8A4F5EF0CF04850445C4A
:10197000136E49504558146E13C001F014C002F0A4
:10198000020E046EBC0E7CEC01F0D8A4E1EF0CF06A
:101990004850445C136E49504558146E13C001F012
:1019A00014C002F0F40E036E010E046EA0EC01F000
:1019B000136E02C014F013503E5E14503F5AE5EF10
:1019C0000CF0010E3E5E000E3F5A48C001F049C0C7
:1019D00002F0046A000E82EC01F0D8A4F3EF0CF0E0
:1019E000320E3E6E3F6AF8EF0CF0320E3E6E3F6AEA
:0219F0001200E3
:020000040030CA
:08000000FFF11FF3FFFDBBFF40
:00000001FF
