:020000040000FA
:10000000006ACEEF00F0E950086E829682908290EE
:100010009496949094900F0E9416085000B222D0AB
:100020003A0E026E980E87EC00F0330E076E2FD852
:10003000130E026E880E87EC00F029D8640E86EC51
:1000400000F025D8640E86EC00F0220E076E1FD853
:10005000280E07D80C0E05D8060E03D800820850CB
:1000600001D00080076E00A00BD0829003080EE341
:100070000DD8070E026ED00E87EC00F0D88012006B
:100080000080FE08D8B4CBEF00F0828000A0009082
:1000900082860F0E82160750F00B82128296073A64
:1000A00000B0F5D7320E86EC00F0D880CBEF00F030
:1000B000139E0A50D8B4138E050E096E270E046ED7
:1000C000100E0CD8030E046EE80E08D8046A640EF5
:1000D00005D8046A0A0E02D8055008D0036E0650EF
:1000E000026E0550016EADEC00F00150016E094E3C
:1000F000139E0A5003E0095CD8B012000150D8A446
:10010000139E13BE1200300FC5EF00F0026AF40F09
:10011000016E021EFE0ED8A003D00126D8B0FDD776
:1001200001260400023EF9D7000001B000D001B062
:1001300000D01200036E060E00D0096E0450025C5F
:1001400002E10350015C040ED8B0010ED8B4020ED7
:100150000914D8A4FF0ECBEF00F0066A056A100E52
:10016000076E0234053606360350055E0450065A03
:1001700005E20350052604500622D89001360236C7
:10018000072EEFD70150CBEF00F0E96EFB6A12505B
:10019000FA6E1150F96E000104001200010EC26ED9
:1001A000C16A870EC06EFF0E926E050E206E216A28
:1001B0000A0E226E236A0F0E246E256A140E266E16
:1001C000276A190E286E296A1E0E2A6E2B6A230EC4
:1001D0002C6E2D6A280E2E6E2F6A2D0E306E316A0F
:1001E000320E326E336A370E346E356A3C0E366E1E
:1001F000376A410E386E396A1C6A1D6A900E1A6E93
:10020000010E1B6E1AC001F01BC002F0010E046E3D
:10021000F40E90DFD8A413EF01F022C01EF023C02B
:100220001FF027EF01F01AC001F01BC002F0046AB2
:10023000C80E80DFD8A423EF01F034C01EF035C013
:100240001FF027EF01F036C01EF037C01FF0FE0E82
:10025000DBDE010ED9DE0A6A20C005F021C006F0FF
:10026000060E116E126A24DF0A6A22C005F023C04E
:1002700006F0060E116E126A1BDF0A6A24C005F032
:1002800025C006F0060E116E126A12DF0A6A26C039
:1002900005F027C006F0060E116E126A09DF0A6A21
:1002A00028C005F029C006F0060E116E126A00DFA4
:1002B0000A6A2AC005F02BC006F0060E116E126AFB
:1002C000F7DEFE0EA1DEC00E9FDE0A6A2CC005F02E
:1002D0002DC006F0060E116E126AEADE0A6A2EC002
:1002E00005F02FC006F0060E116E126AE1DE0A6AF2
:1002F00030C005F031C006F0060E116E126AD8DE6D
:100300000A6A32C005F033C006F0060E116E126A9A
:10031000CFDE0A6A34C005F035C006F0060E116E55
:10032000126AC6DE0A6A36C005F037C006F0060E4D
:10033000116E126ABDDE0A6A38C005F039C006F0D7
:08034000060E116E126AB4DE14
:020000040030CA
:08000000FFF11FF3FFFDBBFF40
:00000001FF
