:020000040000FA
:10000000AE286520B400622084133230A600003090
:10001000A7009320A00AA50AA201A30100083405A5
:10002000A600640000083405A7002606270534064C
:100030000319A20A0319A30A2708A600A403031997
:10004000A5030319A00B11282208A928A9004230F2
:10005000A0000F30A100772003191210031D121405
:10006000FC3E031C9210031892144030A000423052
:10007000A1000F30A400A50112185C2092185C208A
:10008000792020038316920083122008A200210801
:10009000A3002808A600A700280FA7019320250881
:1000A00093000C309500A41B9516241B151683167F
:1000B000051183121215A9285D200310A40CA10CB0
:1000C000A00C080084178004A928A8000530A819EE
:1000D0000530840000308A0028080739820701347F
:1000E0000234043408341034203440348034A50100
:1000F000A4011030A600210DA40DA50D2208A40214
:100100002308031C230FA50203188D282208A40727
:1001100023080318230FA5070310A00DA10DA60B9C
:100120007B282008A9281030A800A101A001A70C55
:10013000A60C031CA1282208A00723080318230FDC
:10014000A107A10CA00CA50CA40CA80B97282408AF
:10015000A928831303138312640008008316403018
:100160008F008312FA30A200A30104300120BA00EC
:100170002308BB003A08A0003B08A1000130A20000
:10018000A3017720BA002108BB003A08A6003B086B
:10019000A7007F30A200A3019320BC002508BD006A
:1001A0003C08A0003D08A100FA30A200A30177207E
:1001B000B8002108B9007F30B800B9013808A8009C
:1001C000F530A200A30101302620B2286300E62802
:02400E00FC3F75
:00000001FF
