:020000040000FA
:10000000006A0CEF01F01AC0EAFF18C0E9FF1650B1
:10001000B3EC00F018C0E9FF640E076E000E086E26
:10002000E4EC00F0022A012A062A036A046AEF506F
:100030001614076E0400EF50161416180712D8B4E1
:10004000032AD8B4042A1618076E0506D8B4060683
:10005000D8B40106D8B4022EEDD7035009EF01F051
:10006000E950086E82968290829094969490949033
:100070000F0E9416085000B222D03A0E026E980E5F
:10008000B9EC00F0330E076E2FD8130E026E880EF7
:10009000B9EC00F029D8640EB8EC00F025D8640E55
:1000A000B8EC00F0220E076E1FD8280E07D80C0EF1
:1000B00005D8060E03D80082085001D00080076ED4
:1000C00000A00BD0829003080EE30DD8070E026E3D
:1000D000D00EB9EC00F0D88012000080FE08D8B431
:1000E00009EF01F0828000A0009082860F0E821638
:1000F0000750F00B82128296073A00B0F5D7320E05
:10010000B8EC00F0D88009EF01F0159E0A50D8B481
:10011000158E050E096E270E046E100E0CD8030EF8
:10012000046EE80E08D8046A640E05D8046A0A0E44
:1001300002D8055008D0036E0650026E0550016EBD
:10014000CCEC00F00150016E094E159E0A5003E000
:10015000095CD8B012000150D8A4159E15BE12003B
:10016000300F03EF01F0E988E92AEC1209EF01F002
:10017000026AF40F016E021EFE0ED8A003D0012603
:10018000D8B0FDD701260400023EF9D7000001B027
:1001900000D001B000D01200066A056A100E076E8A
:1001A0000234053606360350055E0450065A05E251
:1001B0000350052604500622D89001360236072E39
:1001C000EFD7015009EF01F003500702F4CF06F01A
:1001D000F3CF05F004500802F4CF02F0F3CF01F0A2
:1001E00003500802F3500626F4500122E86A022266
:1001F00004500702F3500626F4500122E86A022256
:10020000055009EF01F0E96EFB6A1250FA6E1150C9
:10021000F96E000104001200700ED36E946AE80EAD
:10022000036E030E046E810E186E0F0E1A6E200EF2
:10023000166EE9DE206E04C021F020C007F021C058
:1002400008F03C0E036E046ABFDF136E06C014F0A4
:1002500013C001F014C002F0F40E036E1A0E046E07
:100260009BDF1E6E02C01FF020C007F021C008F007
:100270003C0E036E046AA8DF136E06C014F013C0B0
:1002800007F014C008F0640E036E046A9DDF136E5D
:1002900006C014F013C001F014C002F0F40E036E97
:1002A0001A0E046E79DF136E02C014F013C001F051
:1002B00014C002F0640E036E046A6EDF05C01CF009
:1002C00006C01DF0FE0ECDDE010ECBDE460EC9DEF1
:1002D000720EC7DE650EC5DE710EC3DE750EC1DEA1
:1002E000650EBFDE6E0EBDDE630EBBDE790EB9DEBF
:1002F0003A0EB7DE200EB5DE0A6A20C005F021C036
:1003000006F0600E116E126A00DFFE0EAADEC00E4D
:10031000A8DE460EA6DE6C0EA4DE6F0EA2DE770E01
:10032000A0DE720E9EDE610E9CDE740E9ADE650EFD
:1003300098DE200E96DE0A6A1EC005F01FC006F089
:10034000600E116E126AE1DE2E0E8BDE020E0A6E58
:100350001CC005F01DC006F0600E116E126AD5DEDD
:100360004C0E7FDE2F0E7DDE6D0E7BDE58D7030038
:02037000FED7B6
:020000040030CA
:08000000FFF11FF3FFFDBBFF40
:00000001FF
