:020000040000FA
:1000000072282920B400262084133230A600003044
:10001000A7005720A00AA50AA201A30100083405E1
:10002000A600640000083405A7002606270534064C
:100030000319A20A0319A30A2708A600A403031997
:10004000A5030319A00B112822086D28841780042A
:100050006D28A8000530A8190530840000308A00FA
:100060002808073982070134023404340834103474
:10007000203440348034A501A4011030A600210DA5
:10008000A40DA50D2208A4022308031C230FA5021A
:10009000031851282208A40723080318230FA507D3
:1000A0000310A00DA10DA60B3F2820086D281030CD
:1000B000A800A101A001A70CA60C031C652822081A
:1000C000A00723080318230FA107A10CA00CA50C5F
:1000D000A40CA80B5B2824086D2883130313831238
:1000E000640008008316051605118312E830A2008B
:1000F0000330A30004300120BA002308BB006400D1
:10010000051A872805158316051183128B280511FA
:100110008316051183123A08A0003B08A1000130A4
:10012000A200A3013B20BC002108BD00C8303C0256
:10013000BA000030031C013E3D02BB003A08A60095
:100140003B08A700FF30A200A3015720BC002508F0
:10015000BD003C08A0003D08A100C830A200A301DA
:0E0160003B20B8002108B90076286300B528BE
:02400E00FC3F75
:00000001FF
