:020000040000FA
:10000000006A91EF01F01EC0EAFF1CC0E9FF1A5020
:10001000FAEC00F01CC0E9FF320E076E000E086E0D
:1000200069EC01F0022A012A062A036A046AEF50E9
:100030001A14076E0400EF501A141A180712D8B4D5
:10004000032AD8B4042A1A18076E0506D8B406067F
:10005000D8B40106D8B4022EEDD703508EEF01F0CC
:100060000A6E420E016E0F0E026E51EC01F0D8B412
:10007000CA90D8A4CA80FC0FD8A0CA92D8B0CA82AD
:10008000400E016E420E026E0F0E056E066ACAB079
:1000900028D8CAB226D853EC01F00104CB6E015027
:1000A000036E0250046E0950076E086E093C086A20
:1000B00069EC01F006500A2E0BD0BE6E0C0EBD6E20
:1000C00005BEBD8A05BCBD889494CA848EEF01F03C
:1000D000BB6E0C0EBA6E05BEBA8A05BCBA88949285
:1000E000F4D700D8D8900532023201321200E9501C
:1000F000086E8296829082909496949094900F0EBF
:100100009416085000B222D03A0E026E980E18ECE7
:1001100001F0330E076E2FD8130E026E880E18EC06
:1001200001F029D8640E17EC01F025D8640E17EC05
:1001300001F0220E076E1FD8280E07D80C0E05D826
:10014000060E03D80082085001D00080076E00A080
:100150000BD0829003080EE30DD8070E026ED00E6E
:1001600018EC01F0D88012000080FE08D8B48EEFA1
:1001700001F0828000A0009082860F0E8216075048
:10018000F00B82128296073A00B0F5D7320E17ECC8
:1001900001F0D8808EEF01F0199E0A50D8B4198E64
:1001A000050E096E270E046E100E0CD8030E046E99
:1001B000E80E08D8046A640E05D8046A0A0E02D84C
:1001C000055008D0036E0650026E0550016E51ECCA
:1001D00001F00150016E094E199E0A5003E0095CBE
:1001E000D8B012000150D8A4199E19BE1200300FC9
:1001F00088EF01F0E988E92AEC128EEF01F0E83689
:10020000E8363C0B0109C212C009C216C050F80BF7
:100210000309C06E000E026E320E18EC01F0C282AD
:10022000C2B2FED7C450026EC3508EEF01F0026A14
:10023000E80F016E021EFC0ED8A003D00126D8B034
:10024000FDD701260400023EF9D701B000D001A27B
:1002500002D0000000D01200036E030E06D0036E21
:10026000010E03D0036E040E00D0096E0450025C30
:1002700002E10350015C040ED8B0010ED8B4020EA6
:100280000914D8A4FF0E8EEF01F0E866FF0E0114EA
:10029000D8A4FF0E8EEF01F00110D8A4FF0E8EEF50
:1002A00001F0066A056A100E076E0234053606363E
:1002B0000350055E0450065A05E20350052604501B
:1002C0000622D89001360236072EEFD701508EEF66
:1002D00001F003500702F4CF06F0F3CF05F004500D
:1002E0000802F4CF02F0F3CF01F003500802F350FC
:1002F0000626F4500122E86A022204500702F35055
:100300000626F4500122E86A022205508EEF01F021
:10031000E96EFB6A1250FA6E1150F96E000104008A
:100320001200400ED36EFF0E926E946AC16A870E61
:10033000C06E0C0EBD6E070ECA6EFF0ECB6E640E45
:10034000206E216A0A0E226E236A050E326E336A0F
:10035000320E346E356A050E7E6E7F6A0A0E806F2D
:10036000816B0F0E826F836B140E846F856B190E79
:10037000866F876B1E0E886F896B230E8A6F8B6B5F
:10038000280E8C6F8D6B2D0E8E6F8F6B320E906FD3
:10039000916B370E926F936B3C0E946F956BDB0EE7
:1003A000666E130E676EF10E686E0F0E696EE30EC9
:1003B0006A6E0C0E6B6E7D0E6C6E0A0E6D6E980E74
:1003C0006E6E080E6F6E150E706E070E716EDF0E7C
:1003D000726E050E736EE60E746E040E756E1B0E55
:1003E000766E040E776E760E786E030E796EEE0ED4
:1003F0007A6E020E7B6E7F0E7C6E020E7D6E76EC48
:1004000002F0AAEC03F0090EC26E020EF8DE626E74
:1004100002C063F062C007F063C008F0190E036EFB
:10042000046A57DF136E06C014F013C001F014C045
:1004300002F0660E036E046A34DF366E02C037F0D7
:1004400036C009F0F50E036E046A020E09DEE8EC10
:1004500004F0FE0E4DDE010E4BDE540E49DE650E3D
:1004600047DE6D0E45DE700E43DE3A0E41DE200E95
:100470003FDE0A6A5EC005F05FC006F0EE0E116E48
:10048000126A8ADE200E34DE0A6A4AC005F04BC0CA
:1004900006F0EE0E116E126A7FDEFE0E29DEC00E31
:1004A00027DE460E25DE6C0E23DE6F0E21DE770E74
:1004B0001FDE3A0E1DDE200E1BDE0A6A36C005F076
:1004C00037C006F0EE0E116E126A66DE200E10DEE8
:1004D000200E0EDE0A6A2AC005F02BC006F0EE0ED2
:1004E000116E126A59DE8BD70300FED7010EC26E61
:1004F000000E85DE386E02C039F0016AB00E026E61
:1005000038C003F039C004F0CCDE136E02C014F022
:1005100013C007F014C008F0320E036E046AD9DE6F
:10052000136E06C014F0980E135C3E6E080E14583D
:100530003F6E3EC001F03FC002F067C004F066505D
:100540008EDE136E3EC001F03FC002F07DC004F0AD
:100550007C5088DE156E13C001F015509DDE156EBF
:10056000166E040015501610D8B4E3EF02F0FE0E1C
:1005700078EC00F0010E78EC00F06F0E78EC00F0F3
:10058000750E78EC00F0740E78EC00F0200E78EC2C
:1005900000F06F0E78EC00F0660E78EC00F0200EA4
:1005A00078EC00F0720E78EC00F0610E78EC00F060
:1005B0006E0E78EC00F0670E78EC00F0650E78ECCB
:1005C00000F0A9EF03F02E6A2F6A2EC001F02FC0B1
:1005D00002F0046A0B0E43DED8A472EF03F0D89049
:1005E0002E34E96E2F34EA6E660EE926000EEA22FA
:1005F000EFCF13F0ECCF14F03EC001F03FC002F09B
:1006000014C004F013502EDE136E010E2E24156E4E
:10061000000E2F20166ED8901534E96E1634EA6E4F
:10062000660EE926000EEA22EFCF15F0ECCF16F0A9
:100630003EC001F03FC002F016C004F015500CDEC1
:10064000156E13C001F0155020DE156E166E0400F5
:1006500015501610D8B46DEF03F0010E2E24136E52
:10066000000E2F20146ED8901334E96E1434EA6E05
:10067000660EE926000EEA22EFCF3AF0ECCF3BF00F
:10068000D8902E34E96E2F34EA6E660EE926000EFD
:10069000EA22EFCF3CF0ECCF3DF0D8902E34E96E5B
:1006A0002F34EA6E7E0EE926000EEA22EFCF44F0E8
:1006B000ECCF45F0010E2E24136E000E2F20146E89
:1006C000D8901334E96E1434EA6E7E0EE926000EDB
:1006D000EA22EFCF48F0ECCF49F02E2AD8B42F2AE7
:1006E000D8A473D748C007F049C008F00A0E036EBB
:1006F000046A69EC01F0136E06C014F03A503E5CD7
:10070000156E3B503F58166E15C007F016C008F026
:10071000320E036E046A69EC01F0156E06C016F025
:100720003A503C5C176E3B503D58186E15C001F0B6
:1007300016C002F017C003F018C004F051EC01F02D
:10074000176E02C018F01750135C4A6E18501458F8
:100750004B6E1200050EC26E010EFFEC00F04C6EE7
:1007600002C04DF0016AB00E026E4CC003F04DC0E5
:1007700004F051EC01F0136E02C014F013C007F046
:1007800014C008F0320E036E046A69EC01F0136EB7
:1007900006C014F0980E135C526E080E1458536E77
:1007A00052C001F053C002F067C004F066502FEC55
:1007B00001F0136E52C001F053C002F07DC004F08E
:1007C0007C5032EC01F0156E13C001F015504CEC6A
:1007D00001F0156E166E040015501610D8B41DEFFA
:1007E00004F0FE0E78EC00F0C00E78EC00F06F0E16
:1007F00078EC00F0750E78EC00F0740E78EC00F0F8
:10080000200E78EC00F06F0E78EC00F0660E78ECBD
:1008100000F0200E78EC00F0720E78EC00F0610E23
:1008200078EC00F06E0E78EC00F0670E78EC00F0DB
:10083000650E78EC00F0E7EF04F02E6A2F6A2EC008
:1008400001F02FC002F0046A0B0E2FEC01F0D8A4C7
:10085000B0EF04F0D8902E34E96E2F34EA6E660EB5
:10086000E926000EEA22EFCF13F0ECCF14F052C0CD
:1008700001F053C002F014C004F0135032EC01F048
:10088000136E010E2E24156E000E2F20166ED890BA
:100890001534E96E1634EA6E660EE926000EEA2279
:1008A000EFCF15F0ECCF16F052C001F053C002F0BC
:1008B00016C004F015502CEC01F0156E13C001F0B9
:1008C000155045EC01F0156E166E0400155016100B
:1008D000D8B4ABEF04F0010E2E24136E000E2F20BF
:1008E000146ED8901334E96E1434EA6E660EE9265D
:1008F000000EEA22EFCF4EF0ECCF4FF0D8902E341E
:10090000E96E2F34EA6E660EE926000EEA22EFCF7A
:1009100050F0ECCF51F0D8902E34E96E2F34EA6EBF
:100920007E0EE926000EEA22EFCF58F0ECCF59F008
:10093000010E2E24136E000E2F20146ED890133447
:10094000E96E1434EA6E7E0EE926000EEA22EFCF3D
:100950005CF0ECCF5DF02E2AD8B42F2AD8A46FD744
:100960005CC007F05DC008F00A0E036E046A69EC13
:1009700001F0136E06C014F04E50525C156E4F50CD
:100980005358166E15C007F016C008F0320E036EED
:10099000046A69EC01F0156E06C016F04E50505C0A
:1009A000176E4F505158186E15C001F016C002F066
:1009B00017C003F018C004F051EC01F0176E02C02C
:1009C00018F01750135C5E6E185014585F6E1200CA
:1009D000FA0E036E046A810E1C6E0F0E1E6E200E40
:1009E0001A6E03EC00F02C6E04C02DF02CC001F048
:1009F0002DC002F0010E036E046A51EC01F02C6E62
:100A000002C02DF02CC007F02DC008F0780E036E48
:100A1000046A69EC01F0136E06C014F013C001F013
:100A200014C002F0640E036E050E046E51EC01F06A
:080A30002A6E02C02BF0120037
:020000040030CA
:08000000FFF11FF3FFFDBBFF40
:00000001FF
