:020000040000FA
:10000000006A3AEF01F00A6E420E016E0F0E026EA8
:10001000FAEC00F0D8B4CA90D8A4CA80FC0FD8A0DB
:10002000CA92D8B0CA82400E016E420E026E0F0E06
:10003000056E066ACAB028D8CAB226D8FCEC00F011
:100040000104CB6E0150036E0250046E0950076E1E
:10005000086E093C086A12EC01F006500A2E0BD01B
:10006000BE6E0C0EBD6E05BEBD8A05BCBD889494E7
:10007000CA8437EF01F0BB6E0C0EBA6E05BEBA8AA9
:1000800005BCBA889492F4D700D8D89005320232D1
:1000900001321200E950086E829682908290949606
:1000A000949094900F0E9416085000B222D03A0EFD
:1000B000026E980EE6EC00F0330E076E2FD8130E8A
:1000C000026E880EE6EC00F029D8640EE5EC00F034
:1000D00025D8640EE5EC00F0220E076E1FD8280E1E
:1000E00007D80C0E05D8060E03D80082085001D0A0
:1000F0000080076E00A00BD0829003080EE30DD89D
:10010000070E026ED00EE6EC00F0D88012000080E0
:10011000FE08D8B437EF01F0828000A000908286FC
:100120000F0E82160750F00B82128296073A00B02B
:10013000F5D7320EE5EC00F0D88037EF01F0159ED0
:100140000A50D8B4158E050E096E270E046E100ED7
:100150000CD8030E046EE80E08D8046A640E05D8A5
:10016000046A0A0E02D8055008D0036E0650026ECB
:100170000550016EFAEC00F00150016E094E159E1B
:100180000A5003E0095CD8B012000150D8A4159EB3
:1001900015BE1200300F31EF01F0E836E8363C0BA7
:1001A0000109C212C009C216C050F80B0309C06E83
:1001B000000E026E320EE6EC00F0C282C2B2FED732
:1001C000C450026EC35037EF01F0026AE80F016EAF
:1001D000021EFC0ED8A003D00126D8B0FDD7012600
:1001E0000400023EF9D701B000D001A202D0000005
:1001F00000D01200066A056A100E076E023405363A
:1002000006360350055E0450065A05E203500526E3
:1002100004500622D89001360236072EEFD701503F
:1002200037EF01F003500702F4CF06F0F3CF05F0EB
:1002300004500802F4CF02F0F3CF01F0035008029B
:10024000F3500626F4500122E86A02220450070205
:10025000F3500626F4500122E86A0222055037EFD7
:1002600001F0E96EFB6A1250FA6E1150F96E00014E
:1002700004001200400ED36E050EC26EC16A870ED6
:10028000C06EFF0E926E946A010E87DF1E6E02C072
:100290001FF01EC007F01FC008F0190E036E046A9D
:1002A000C1DF136E06C014F013C001F014C002F0D9
:1002B000660E036E046A9EDF1C6E02C01DF01CC039
:1002C00009F0F50E036E046A010E9DDEFE0EE3DEFC
:1002D000010EE1DE0A6A1EC005F01FC006F0940E92
:1002E000116E126A2CDFFE0ED6DEC00ED4DE0A6A54
:1002F0001CC005F01DC006F0940E116E126A1FDFBF
:020000040030CA
:08000000FFF11FF3FFFDBBFF40
:00000001FF
