:020000040000FA
:10000000006A1FEF01F0E950086E8296829082909C
:100010009496949094900F0E9416085000B222D0AB
:100020003A0E026E980EADEC00F0330E076E2FD82C
:10003000130E026E880EADEC00F029D8640EACEC05
:1000400000F025D8640EACEC00F0220E076E1FD82D
:10005000280E07D80C0E05D8060E03D800820850CB
:1000600001D00080076E00A00BD0829003080EE341
:100070000DD8070E026ED00EADEC00F0D880120045
:100080000080FE08D8B41CEF01F0828000A0009030
:1000900082860F0E82160750F00B82128296073A64
:1000A00000B0F5D7320EACEC00F0D8801CEF01F0B8
:1000B000159E0A50D8B4158E050E096E270E046ED3
:1000C000100E0CD8030E046EE80E08D8046A640EF5
:1000D00005D8046A0A0E02D8055008D0036E0650EF
:1000E000026E0550016EDFEC00F00150016E094E0A
:1000F000159E0A5003E0095CD8B012000150D8A444
:10010000159E15BE1200300F16EF01F0E836E836E6
:100110003C0B0109C212C009C216C050F80B0309FA
:10012000C06E000E026E320EADEC00F0C282C2B2A2
:10013000FED7C450026EC3501CEF01F0046A036E78
:10014000FF0E0326D8A00426D8A01CEF01F0030E52
:10015000026EDF0E02D8F4D7026AE80F016E021EAB
:10016000FC0ED8A003D00126D8B0FDD7012604008C
:10017000023EF9D701B000D001A202D0000000D0A9
:100180001200D89002320132FF0FFBE201501CEF47
:1001900001F0036E030E03D0036E060E00D0096E4D
:1001A0000450025C02E10350015C040ED8B0010E61
:1001B000D8B4020E0914D8A4FF0E1CEF01F0066A91
:1001C000056A100E076E0234053606360350055ECA
:1001D0000450065A05E20350052604500622D89022
:1001E00001360236072EEFD701501CEF01F0035005
:1001F0000702F4CF06F0F3CF05F004500802F4CF65
:1002000002F0F3CF01F003500802F3500626F45039
:100210000122E86A022204500702F3500626F45035
:100220000122E86A022205501CEF01F0E96EFB6A28
:100230001250FA6E1150F96E000104001200400EC7
:10024000D36EC16A870EC06EFF0E926E946A94944C
:100250000C0EBD6E070ECA6EFF0ECB6E320E1E6EFA
:100260001F6A1EB0BD881EA0BD981EB2BD8A1EA208
:10027000BD9A1EC001F01FC002F0020E85DFBE6EE7
:10028000030E046EE80E5BDF640E1E6E1F6A1EB066
:10029000BD881EA0BD981EB2BD8A1EA2BD9A1EC0FA
:1002A00001F01FC002F0020E6FDFBE6E0D0EC26EB7
:1002B000030E2CDF206E02C021F020C007F021C009
:1002C00008F03F0E036E046A92DF136E06C014F04E
:1002D00013C001F014C002F0080E036E046A6FDF51
:1002E000266E02C027F022EC02F062EC02F01EB093
:1002F000BD881EA0BD981EB2BD8A1EA2BD9A1EC09A
:1003000001F01FC002F0020E3FDFBE6EFE0E7CDE6B
:10031000010E7ADE700E78DE5F0E76DE690E74DE18
:100320006E0E72DE3D0E70DE0A6A1CC005F01DC046
:1003300006F0060E116E126ABBDE200E65DE200E80
:1003400063DE700E61DE720E5FDE650E5DDE730EC3
:100350005BDE3D0E59DE0A6A24C005F025C006F0BA
:10036000060E116E126AA4DE200E4EDE200E4CDE4A
:10037000FE0E4ADEC00E48DE700E46DE5F0E44DE24
:10038000760E42DE610E40DE6C0E3EDE3D0E3CDE41
:100390000A6A22C005F023C006F0060E116E126A2A
:1003A00087DE200E31DE200E2FDE720E2DDE650E72
:1003B0002BDE660E29DE3D0E27DE0A6A20C005F020
:1003C00021C006F0060E116E126A72DE200E1CDECF
:1003D000700E1ADE720E18DE650E16DE730E14DE57
:1003E0005F0E12DE720E10DE650E0EDE660E0CDE85
:1003F0003D0E0ADE200E08DE0A6A26C005F027C080
:1004000006F0060E116E126A53DE200E04EC00F0A8
:10041000700E04EC00F0770E04EC00F06D0E04ECAE
:1004200000F03D0E04EC00F00A6A1EC005F01FC08B
:1004300006F0060E116E126A3BDEFA0E7FDE36D72C
:100440000300FED7110EC26E040E60DE1C6E02C0E9
:100450001DF01CC007F01DC008F03C0E036E046ABE
:10046000C6DE136E06C014F013C001F014C002F013
:10047000380E036E046AA3DE136E02C014F0230E5E
:10048000135C226E000E1458236E1CC007F01DC0B2
:1004900008F0190E036E046AAADE136E06C014F08B
:1004A00013C001F014C002F0030E036E046A87DE6D
:1004B000136E02C014F0150E135C246E010E145856
:1004C000256E120022C001F023C002F021C004F00A
:1004D00020505FDED8A4A6EF02F01EC001F01FC0BE
:1004E00002F0046A780E55DED8A4A3EF02F0225081
:1004F000205C136E23502158146E13C001F014C0F9
:1005000002F0046A050E48DED8A49EEF02F02250E5
:10051000205C136E23502158146E13C001F014C0D8
:1005200002F0320E036E046A4ADE136E02C014F04B
:1005300013501E2614501F22A1EF02F01E2AD8B419
:100540001F2AA6EF02F0780E1E6E1F6A22C001F06D
:1005500023C002F021C004F020501EDED8A4EBEF2F
:1005600002F01EC001F01FC002F0046A320E14DE59
:10057000D8A4E8EF02F02050225C136E21502358DB
:10058000146E13C001F014C002F0046A050E04DEFC
:10059000D8A4E2EF02F02050225C136E21502358C1
:1005A000146E13C001F014C002F0320E036E046A20
:1005B00006DE136E02C014F013501E5E14501F5A54
:1005C000E6EF02F0010E1E5E000E1F5AEBEF02F086
:0805D000320E1E6E1F6A1200BC
:020000040030CA
:08000000FFF11FF3FFFDBBFF40
:00000001FF
