:020000040000FA
:10000000006A2DEF01F01AC0EAFF18C0E9FF165090
:10001000B3EC00F018C0E9FF320E076E000E086E58
:1000200005EC01F0022A012A062A036A046AEF504D
:100030001614076E0400EF50161416180712D8B4E1
:10004000032AD8B4042A1618076E0506D8B4060683
:10005000D8B40106D8B4022EEDD703502AEF01F030
:10006000E950086E82968290829094969490949033
:100070000F0E9416085000B222D03A0E026E980E5F
:10008000D1EC00F0330E076E2FD8130E026E880EDF
:10009000D1EC00F029D8640ED0EC00F025D8640E25
:1000A000D0EC00F0220E076E1FD8280E07D80C0ED9
:1000B00005D8060E03D80082085001D00080076ED4
:1000C00000A00BD0829003080EE30DD8070E026E3D
:1000D000D00ED1EC00F0D88012000080FE08D8B419
:1000E0002AEF01F0828000A0009082860F0E821617
:1000F0000750F00B82128296073A00B0F5D7320E05
:10010000D0EC00F0D8802AEF01F0159E0A50D8B448
:10011000158E050E096E270E046E100E0CD8030EF8
:10012000046EE80E08D8046A640E05D8046A0A0E44
:1001300002D8055008D0036E0650026E0550016EBD
:10014000EDEC00F00150016E094E159E0A5003E0DF
:10015000095CD8B012000150D8A4159E15BE12003B
:10016000300F24EF01F0E988E92AEC122AEF01F0C0
:10017000E836E8363C0B0109C212C009C216C0506D
:10018000F80B0309C06E000E026E320ED1EC00F0C7
:10019000C282C2B2FED7C450026EC3502AEF01F031
:1001A000026AE80F016E021EFC0ED8A003D00126E1
:1001B000D8B0FDD701260400023EF9D701B000D027
:1001C00001A202D0000000D01200D8900232013209
:1001D000FF0FFBE201502AEF01F0066A056A100EDC
:1001E000076E0234053606360350055E0450065A83
:1001F00005E20350052604500622D8900136023647
:10020000072EEFD701502AEF01F003500702F4CF79
:1002100006F0F3CF05F004500802F4CF02F0F3CF5C
:1002200001F003500802F3500626F4500122E86A58
:10023000022204500702F3500626F4500122E86A15
:10024000022205502AEF01F0E96EFB6A1250FA6EA5
:100250001150F96E000104001200400ED36EC16A05
:10026000870EC06EFF0E926E946A94940C0EBD6E53
:10027000070ECA6EFF0ECB6E0D0EC26E030E78DF38
:10028000246E02C025F024C007F025C008F0230E1C
:10029000036E046ABADF136E06C014F013C001F0D7
:1002A00014C002F0036A020E046E97DF136E02C0E0
:1002B00014F0330E1324226E000E1420236E22B08D
:1002C000BD8822A0BD9822B2BD8A22A2BD9A22C0BA
:1002D00001F023C002F0020E7BDFBE6EE80E036E5B
:1002E000030E046E810E186E0F0E1A6E200E166E1F
:1002F0008ADE206E04C021F020C001F021C002F08F
:10030000040E036E046A69DF206E02C021F020C073
:1003100007F021C008F01E0E036E046A76DF136E2C
:1003200006C014F013C001F014C002F07A0E036E80
:100330000D0E046E52DF1E6E02C01FF020C007F0CB
:1003400021C008F01E0E036E046A5FDF136E06C044
:1003500014F013C007F014C008F0640E036E046AB2
:1003600054DF136E06C014F013C001F014C002F085
:100370007A0E036E0D0E046E30DF136E02C014F0A1
:1003800013C001F014C002F0640E036E046A25DF8E
:1003900005C01CF006C01DF0FE0E63DE010E61DE1E
:1003A0000A6A24C005F025C006F0600E116E126ABC
:1003B000ACDE200E56DE200E54DE0A6A22C005F0A6
:1003C00023C006F0600E116E126A9FDEFE0E49DE3B
:1003D000C00E47DE0A6A20C005F021C006F0600E9C
:1003E000116E126A92DE200E3CDE200E3ADE0A6AA0
:1003F0001EC005F01FC006F0600E116E126A85DE89
:100400002E0E2FDE020E0A6E1CC005F01DC006F077
:0E041000600E116E126A79DE2FD70300FED740
:020000040030CA
:08000000FFF11FF3FFFDBBFF40
:00000001FF
