:020000040000FA
:10000000006AAAEF01F01EC0EAFF1CC0E9FF1A5007
:10001000FAEC00F01CC0E9FF320E076E000E086E0D
:1000200082EC01F0022A012A062A036A046AEF50D0
:100030001A14076E0400EF501A141A180712D8B4D5
:10004000032AD8B4042A1A18076E0506D8B406067F
:10005000D8B40106D8B4022EEDD70350A7EF01F0B3
:100060000A6E420E016E0F0E026E6AEC01F0D8B4F9
:10007000CA90D8A4CA80FC0FD8A0CA92D8B0CA82AD
:10008000400E016E420E026E0F0E056E066ACAB079
:1000900028D8CAB226D86CEC01F00104CB6E01500E
:1000A000036E0250046E0950076E086E093C086A20
:1000B00082EC01F006500A2E0BD0BE6E0C0EBD6E07
:1000C00005BEBD8A05BCBD889494CA84A7EF01F023
:1000D000BB6E0C0EBA6E05BEBA8A05BCBA88949285
:1000E000F4D700D8D8900532023201321200E9501C
:1000F000086E8296829082909496949094900F0EBF
:100100009416085000B222D03A0E026E980E26ECD9
:1001100001F0330E076E2FD8130E026E880E26ECF8
:1001200001F029D8640E25EC01F025D8640E25ECE9
:1001300001F0220E076E1FD8280E07D80C0E05D826
:10014000060E03D80082085001D00080076E00A080
:100150000BD0829003080EE30DD8070E026ED00E6E
:1001600026EC01F0D88012000080FE08D8B4A7EF7A
:1001700001F0828000A0009082860F0E8216075048
:10018000F00B82128296073A00B0F5D7320E25ECBA
:1001900001F0D880A7EF01F0199E0A50D8B4198E4B
:1001A000050E096E270E046E100E0CD8030E046E99
:1001B000E80E08D8046A640E05D8046A0A0E02D84C
:1001C000055008D0036E0650026E0550016E6AECB1
:1001D00001F00150016E094E199E0A5003E0095CBE
:1001E000D8B012000150D8A4199E19BE1200300FC9
:1001F000A1EF01F0E988E92AEC12A7EF01F0E83657
:10020000E8363C0B0109C212C009C216C050F80BF7
:100210000309C06E000E026E320E26EC01F0C2829F
:10022000C2B2FED7C450026EC350A7EF01F0046AF9
:10023000036EFF0E0326D8A00426D8A0A7EF01F076
:10024000030E026EDF0E02D8F4D7026AE80F016EC9
:10025000021EFC0ED8A003D00126D8B0FDD701267F
:100260000400023EF9D701B000D001A202D0000084
:1002700000D01200D89002320132FF0FFBE2015091
:10028000A7EF01F0036E030E09D0036E010E06D036
:10029000036E060E03D0036E040E00D0096E0450E8
:1002A000025C02E10350015C040ED8B0010ED8B428
:1002B000020E0914D8A4FF0EA7EF01F0E866FF0EA6
:1002C0000114D8A4FF0EA7EF01F00110D8A4FF0E6F
:1002D000A7EF01F0066A056A100E076E02340536B4
:1002E00006360350055E0450065A05E20350052603
:1002F00004500622D89001360236072EEFD701505F
:10030000A7EF01F003500702F4CF06F0F3CF05F09A
:1003100004500802F4CF02F0F3CF01F003500802BA
:10032000F3500626F4500122E86A02220450070224
:10033000F3500626F4500122E86A02220550A7EF86
:1003400001F0E96EFB6A1250FA6E1150F96E00016D
:1003500004001200400ED36EFF0E926E946AC16AC2
:10036000870EC06E0C0EBD6E070ECA6EFF0ECB6EF2
:10037000640E206E216A0A0E226E236A050E326E0A
:10038000336A320E346E356A050E686E696A0A0E7B
:100390006A6E6B6A0F0E6C6E6D6A140E6E6E6F6A0B
:1003A000190E706E716A1E0E726E736A230E746E71
:1003B000756A280E766E776A2D0E786E796A320E1F
:1003C0007A6E7B6A370E7C6E7D6A3C0E7E6E7F6A2B
:1003D000DB0E506E130E516EF10E526E0F0E536EF9
:1003E000E30E546E0C0E556E7D0E566E0A0E576E51
:1003F000980E586E080E596E150E5A6E070E5B6EEB
:10040000DF0E5C6E050E5D6EE60E5E6E040E5F6EB8
:100410001B0E606E040E616E760E626E030E636ECE
:10042000EE0E646E020E656E7F0E666E020E676ED5
:10043000640E266E276A26B0BD8826A0BD9826B217
:10044000BD8A26A2BD9A26C001F027C002F0020E86
:1004500014DFBE6E090EC26E020ED1DE446E02C003
:1004600045F044C007F045C008F0320E036E046A40
:1004700049DF136E06C014F013C001F014C002F07F
:10048000FF0E036E046A26DF136E02C014F013C061
:1004900007F014C008F00A0E036E046A33DF446EDE
:1004A00006C045F0B8EC02F0EEEC03F04AC009F0EB
:1004B000F50E036E046A020E30EC00F0D8EC04F086
:1004C000FE0E16DE010E14DE540E12DE650E10DE78
:1004D0006D0E0EDE700E0CDE3A0E0ADE200E08DE09
:1004E0000A6A44C005F045C006F0EE0E116E126AAD
:1004F00053DE200E78EC00F00A6A48C005F049C0CF
:1005000006F0EE0E116E126A47DEFE0E78EC00F079
:10051000C00E78EC00F0460E78EC00F06C0E78EC33
:1005200000F06F0E78EC00F0770E78EC00F03A0EE9
:1005300078EC00F0200E78EC00F00A6A2CC005F090
:100540002DC006F0EE0E116E126A26DE200E78EC3B
:1005500000F0200E78EC00F00A6A2AC005F02BC0EB
:1005600006F0EE0E116E126A17DE74D70300FED786
:10057000010EC26E000E43DE366E02C037F0016A15
:10058000B00E026E36C003F037C004F0A3DE136E67
:1005900002C014F013C007F014C008F0320E036E4E
:1005A000046AB0DE136E06C014F0980E135C3C6E45
:1005B000080E14583D6E3CC001F03DC002F051C021
:1005C00004F0505062DE136E3CC001F03DC002F0FA
:1005D00067C004F066505FDE156E13C001F0155061
:1005E00074DE156E166E040015501610D8B425EF83
:1005F00003F0FE0E78EC00F0C00E78EC00F06F0E09
:1006000078EC00F0750E78EC00F0740E78EC00F0E9
:10061000200E78EC00F06F0E78EC00F0660E78ECAF
:1006200000F0200E78EC00F0720E78EC00F0610E15
:1006300078EC00F06E0E78EC00F0670E78EC00F0CD
:10064000650E78EC00F0EDEF03F02E6A2F6A2EC0F5
:1006500001F02FC002F0046A0B0E17DED8A4B6EF2B
:1006600003F0D8902E34E96E2F34EA6E500EE9264E
:10067000000EEA22EFCF13F0ECCF14F03CC001F0F3
:100680003DC002F014C004F0135005DE136E010EDD
:100690002E24156E000E2F20166ED8901534E96E9C
:1006A0001634EA6E500EE926000EEA22EFCF15F05E
:1006B000ECCF16F03CC001F03DC002F016C004F0D3
:1006C000155042EC01F0156E13C001F015505EECB0
:1006D00001F0156E166E040015501610D8B4B1EF67
:1006E00003F0010E2E24136E000E2F20146ED890EE
:1006F0001334E96E1434EA6E500EE926000EEA2235
:10070000EFCF38F0ECCF39F0D8902E34E96E2F349B
:10071000EA6E500EE926000EEA22EFCF3AF0ECCF57
:100720003BF0D8902E34E96E2F34EA6E680EE9263D
:10073000000EEA22EFCF42F0ECCF43F0010E2E2460
:10074000136E000E2F20146ED8901334E96E1434FB
:10075000EA6E680EE926000EEA22EFCF46F0ECCFF3
:1007600047F02E2AD8B42F2AD8A471D746C007F054
:1007700047C008F00A0E036E046A82EC01F0136EA3
:1007800006C014F038503C5C156E39503D58166E5A
:1007900015C007F016C008F0320E036E046A82EC32
:1007A00001F0156E06C016F038503A5C176E3950DD
:1007B0003B58186E15C001F016C002F017C003F0C8
:1007C00018C004F06AEC01F0176E02C018F0175060
:1007D000135C486E18501458496E1200FA0E17EC4C
:1007E00001F048C001F049C002F045C004F0445097
:1007F00048EC01F0D8A46BEF04F04AC001F04BC004
:1008000002F0046A000E48EC01F0D8A467EF04F08F
:100810004450485C136E45504958146E13C001F0A3
:1008200014C002F021C004F0205048EC01F0D8A41C
:100830001EEF04F00C0E4A5E000E4B5A4450485C0A
:10084000136E45504958146E13C001F014C002F0E5
:1008500035C004F0345045EC01F0136E4450485C50
:10086000156E45504958166E15C001F016C002F0BD
:1008700033C004F032504BEC01F0156E13C001F0A0
:1008800015505EEC01F0156E166E04001550161032
:10089000D8B44FEF04F0080E4A5E000E4B5A445095
:1008A000485C136E45504958146E13C001F014C0D3
:1008B00002F035C004F0345042EC01F0D8A465EFEA
:1008C00004F0010E4A5E000E4B5A69EF04F04A6ACA
:1008D0004B6AD7EF04F04AC001F04BC002F0046A43
:1008E000FE0E42EC01F0D8A4D4EF04F04850445C72
:1008F000136E49504558146E13C001F014C002F035
:1009000021C004F0205048EC01F0D8A48CEF04F092
:100910000C0E4A26000E4B224850445C136E495080
:100920004558146E13C001F014C002F023C004F047
:10093000225045EC01F0136E4850445C156E49504E
:100940004558166E15C001F016C002F021C004F023
:1009500020504BEC01F0156E13C001F015505EEC09
:1009600001F0156E166E040015501610D8B4BDEFC8
:1009700004F0080E4A26000E4B224850445C136EC9
:1009800049504558146E13C001F014C002F023C042
:1009900004F0225042EC01F0D8A4D2EF04F04A2A2D
:1009A000D8B44B2AD7EF04F0FE0E4A6E4B6A120001
:1009B000FA0E036E046A810E1C6E0F0E1E6E200E60
:1009C0001A6E03EC00F02C6E04C02DF02CC001F068
:1009D0002DC002F0010E036E046A6AEC01F02C6E69
:1009E00002C02DF02CC007F02DC008F0780E036E69
:1009F000046A82EC01F0136E06C014F013C001F01B
:100A000014C002F0640E036E050E046E6AEC01F071
:080A10002A6E02C02BF0120057
:020000040030CA
:08000000FFF11FF3FFFDBBFF40
:00000001FF
