:020000040000FA
:10000000006A5FEF01F00A6E420E016E0F0E026E83
:100010001FEC01F0D8B4CA90D8A4CA80FC0FD8A0B5
:10002000CA92D8B0CA82400E016E420E026E0F0E06
:10003000056E066ACAB028D8CAB226D821EC01F0EB
:100040000104CB6E0150036E0250046E0950076E1E
:10005000086E093C086A37EC01F006500A2E0BD0F6
:10006000BE6E0C0EBD6E05BEBD8A05BCBD889494E7
:10007000CA845CEF01F0BB6E0C0EBA6E05BEBA8A84
:1000800005BCBA889492F4D700D8D89005320232D1
:1000900001321200E950086E829682908290949606
:1000A000949094900F0E9416085000B222D03A0EFD
:1000B000026E980EE6EC00F0330E076E2FD8130E8A
:1000C000026E880EE6EC00F029D8640EE5EC00F034
:1000D00025D8640EE5EC00F0220E076E1FD8280E1E
:1000E00007D80C0E05D8060E03D80082085001D0A0
:1000F0000080076E00A00BD0829003080EE30DD89D
:10010000070E026ED00EE6EC00F0D88012000080E0
:10011000FE08D8B45CEF01F0828000A000908286D7
:100120000F0E82160750F00B82128296073A00B02B
:10013000F5D7320EE5EC00F0D8805CEF01F0199EA7
:100140000A50D8B4198E050E096E270E046E100ED3
:100150000CD8030E046EE80E08D8046A640E05D8A5
:10016000046A0A0E02D8055008D0036E0650026ECB
:100170000550016E1FEC01F00150016E094E199EF1
:100180000A5003E0095CD8B012000150D8A4199EAF
:1001900019BE1200300F56EF01F0E836E8363C0B7E
:1001A0000109C212C009C216C050F80B0309C06E83
:1001B000000E026E320EE6EC00F0C282C2B2FED732
:1001C000C450026EC3505CEF01F0026AE80F016E8A
:1001D000021EFC0ED8A003D00126D8B0FDD7012600
:1001E0000400023EF9D701B000D001A202D0000005
:1001F00000D01200036E030E06D0036E010E03D072
:10020000036E040E00D0096E0450025C02E103503C
:10021000015C040ED8B0010ED8B4020E0914D8A4A3
:10022000FF0E5CEF01F0E866FF0E0114D8A4FF0E8C
:100230005CEF01F00110D8A4FF0E5CEF01F0066A3C
:10024000056A100E076E0234053606360350055E49
:100250000450065A05E20350052604500622D890A1
:1002600001360236072EEFD701505CEF01F0035044
:100270000702F4CF06F0F3CF05F004500802F4CFE4
:1002800002F0F3CF01F003500802F3500626F450B9
:100290000122E86A022204500702F3500626F450B5
:1002A0000122E86A022205505CEF01F0E96EFB6A68
:1002B0001250FA6E1150F96E000104001200400E47
:1002C000D36E050E506E516A0A0E526E536A0F0EAF
:1002D000546E556A140E566E576A190E586E596A46
:1002E0001E0E5A6E5B6A230E5C6E5D6A280E5E6E91
:1002F0005F6A2D0E606E616A320E626E636A370E3F
:10030000646E656A3C0E666E676ADB0E386E130EAD
:10031000396EF10E3A6E0F0E3B6EE30E3C6E0C0E14
:100320003D6E7D0E3E6E0A0E3F6E980E406E080EBC
:10033000416E150E426E070E436EDF0E446E050EC3
:10034000456EE60E466E040E476E1B0E486E040E9A
:10035000496E760E4A6E030E4B6EEE0E4C6E020E1A
:100360004D6E7F0E4E6E020E4F6EC16A870EC06ECE
:10037000FF0E926E946A13EC02F0090EC26E020E2A
:100380000CDF366E02C037F036C007F037C008F019
:10039000190E036E046A6BDF136E06C014F013C0EF
:1003A00001F014C002F0660E036E046A48DF246E8A
:1003B00002C025F024C009F0F50E036E046A020E97
:1003C00022DEFE0E68DE010E66DE0A6A24C005F03B
:1003D00025C006F0940E116E126AB1DEFE0E5BDED1
:1003E000C00E59DE540E57DE650E55DE6D0E53DE1F
:1003F000700E51DE3A0E4FDE0A6A30C005F031C091
:1004000006F0940E116E126A9ADE2E0E44DE0A6A0F
:100410002EC005F02FC006F0940E116E126A8FDE0A
:10042000AAD70300FED7010EC26E000EB6DE266EFE
:1004300002C027F0F00E016E550E026E26C003F0CA
:1004400027C004F0FCDE136E02C014F013C007F0E6
:1004500014C008F0660E036E046A09DF136E06C04E
:1004600014F0980E135C2C6E080E14582D6E2CC0D0
:1004700001F02DC002F039C004F03850BEDE136E1A
:100480002CC001F02DC002F04FC004F04E50B8DE79
:10049000156E13C001F01550CDDE156E166E0400FA
:1004A00015501610D8B481EF02F0FE0E4BEC00F0A0
:1004B000C00E4BEC00F06F0E4BEC00F0750E4BECE9
:1004C00000F0740E4BEC00F0200E4BEC00F06F0EC1
:1004D0004BEC00F0660E4BEC00F0200E4BEC00F005
:1004E000720E4BEC00F0610E4BEC00F06E0E4BEC1C
:1004F00000F0670E4BEC00F0650E4BEC00F095EF52
:1005000003F0206A216A20C001F021C002F0046AD1
:100510000B0E73DED8A410EF03F0D8902034E96EF0
:100520002134EA6E380EE926000EEA22EFCF13F0EE
:10053000ECCF14F02CC001F02DC002F014C004F078
:1005400013505EDE136E010E2024156E000E212066
:10055000166ED8901534E96E1634EA6E380EE92618
:10056000000EEA22EFCF15F0ECCF16F02CC001F010
:100570002DC002F016C004F015503CDE156E13C0FD
:1005800001F0155050DE156E166E04001550161051
:10059000D8B40BEF03F0010E2024136E000E2120BF
:1005A000146ED8901334E96E1434EA6E380EE926CE
:1005B000000EEA22EFCF28F0ECCF29F0D8902034BB
:1005C000E96E2134EA6E380EE926000EEA22EFCFFA
:1005D0002AF0ECCF2BF0D8902034E96E2134EA6E6B
:1005E000500EE926000EEA22EFCF32F0ECCF33F0C6
:1005F000010E2024136E000E2120146ED8901334A7
:10060000E96E1434EA6E500EE926000EEA22EFCFAE
:1006100034F0ECCF35F0202AD8B4212AD8A473D7EF
:1006200034C007F035C008F00A0E036E046A1FDEFE
:10063000136E06C014F028502C5C156E29502D58EE
:10064000166E15C007F016C008F0320E036E046A6D
:100650000EDE156E06C016F028502A5C176E295063
:100660002B58186E15C001F016C002F017C003F029
:1006700018C004F01FEC01F0176E02C018F01750FC
:10068000135C176E18501458186E17C001F018C07C
:1006900002F00A0E036E046A1FEC01F0306E02C015
:1006A00031F034C007F035C008F00A0E036E046A5A
:1006B00037EC01F0136E06C014F028502C5C156E58
:1006C00029502D58166E15C007F016C008F0320ECE
:1006D000036E046A37EC01F0156E06C016F0285060
:1006E0002A5C176E29502B58186E15C001F016C0E1
:1006F00002F017C003F018C004F01FEC01F0176EF1
:1007000002C018F01750135C176E18501458186E6A
:1007100017C001F018C002F00A0E036E046A1FEC45
:0C07200001F005C02EF006C02FF0120002
:020000040030CA
:08000000FFF11FF3FFFDBBFF40
:00000001FF
