:020000040000FA
:10000000006A70EF01F00A6E420E016E0F0E026E72
:1000100030EC01F0D8B4CA90D8A4CA80FC0FD8A0A4
:10002000CA92D8B0CA82400E016E420E026E0F0E06
:10003000056E066ACAB028D8CAB226D832EC01F0DA
:100040000104CB6E0150036E0250046E0950076E1E
:10005000086E093C086A48EC01F006500A2E0BD0E5
:10006000BE6E0C0EBD6E05BEBD8A05BCBD889494E7
:10007000CA846DEF01F0BB6E0C0EBA6E05BEBA8A73
:1000800005BCBA889492F4D700D8D89005320232D1
:1000900001321200E950086E829682908290949606
:1000A000949094900F0E9416085000B222D03A0EFD
:1000B000026E980EF4EC00F0330E076E2FD8130E7C
:1000C000026E880EF4EC00F029D8640EF3EC00F018
:1000D00025D8640EF3EC00F0220E076E1FD8280E10
:1000E00007D80C0E05D8060E03D80082085001D0A0
:1000F0000080076E00A00BD0829003080EE30DD89D
:10010000070E026ED00EF4EC00F0D88012000080D2
:10011000FE08D8B46DEF01F0828000A000908286C6
:100120000F0E82160750F00B82128296073A00B02B
:10013000F5D7320EF3EC00F0D8806DEF01F0199E88
:100140000A50D8B4198E050E096E270E046E100ED3
:100150000CD8030E046EE80E08D8046A640E05D8A5
:10016000046A0A0E02D8055008D0036E0650026ECB
:100170000550016E30EC01F00150016E094E199EE0
:100180000A5003E0095CD8B012000150D8A4199EAF
:1001900019BE1200300F67EF01F0E836E8363C0B6D
:1001A0000109C212C009C216C050F80B0309C06E83
:1001B000000E026E320EF4EC00F0C282C2B2FED724
:1001C000C450026EC3506DEF01F0046A036EFF0E5F
:1001D0000326D8A00426D8A06DEF01F0030E026E0E
:1001E000DF0E02D8F4D7026AE80F016E021EFC0E81
:1001F000D8A003D00126D8B0FDD701260400023EC6
:10020000F9D701B000D001A202D0000000D0120046
:10021000036E030E09D0036E010E06D0036E060EA8
:1002200003D0036E040E00D0096E0450025C02E19C
:100230000350015C040ED8B0010ED8B4020E0914AC
:10024000D8A4FF0E6DEF01F0E866FF0E0114D8A4EC
:10025000FF0E6DEF01F00110D8A4FF0E6DEF01F05D
:10026000066A056A100E076E02340536063603501C
:10027000055E0450065A05E2035005260450062286
:10028000D89001360236072EEFD701506DEF01F0FE
:1002900003500702F4CF06F0F3CF05F00450080234
:1002A000F4CF02F0F3CF01F003500802F35006261A
:1002B000F4500122E86A022204500702F350062695
:1002C000F4500122E86A022205506DEF01F0E96E58
:1002D000FB6A1250FA6E1150F96E00010400120010
:1002E000400ED36E640E206E216A0A0E226E236ABF
:1002F000050E286E296A320E2A6E2B6A050E5E6E76
:100300005F6A0A0E606E616A0F0E626E636A140E97
:10031000646E656A190E666E676A1E0E686E696A9B
:10032000230E6A6E6B6A280E6C6E6D6A2D0E6E6EF1
:100330006F6A320E706E716A370E726E736A3C0E9F
:10034000746E756ADB0E466E130E476EF10E486EC4
:100350000F0E496EE30E4A6E0C0E4B6E7D0E4C6E08
:100360000A0E4D6E980E4E6E080E4F6E150E506EA4
:10037000070E516EDF0E526E050E536EE60E546E72
:10038000040E556E1B0E566E040E576E760E586E8A
:10039000030E596EEE0E5A6E020E5B6E7F0E5C6E91
:1003A000020E5D6EFF0E926E946AC16A870EC06E79
:1003B000266A276A60EC02F0090EC26E020EEDDEBC
:1003C0003C6E02C03DF03CC007F03DC008F0320E6C
:1003D000036E046A5DDF136E06C014F013C001F0F3
:1003E00014C002F0FF0E036E046A3ADF136E02C0FF
:1003F00014F013C007F014C008F00A0E036E046A6C
:1004000047DF3C6E06C03DF095EC03F02CC009F0D0
:10041000F50E036E046A020E03EC00F0FE0E3BDEE6
:10042000010E39DE0A6A40C005F041C006F0940EA4
:10043000116E126A84DE200E2EDE200E2CDE200EBF
:100440002ADE200E28DE200E26DE200E24DE200EE0
:1004500022DE0A6A3CC005F03DC006F0940E116E23
:10046000126A6DDEFE0E17DEC00E15DE0A6A2CC0A3
:1004700005F02DC006F0940E116E126A60DE200E9B
:100480000ADE200E08DE200E06DE0A6A26C005F00F
:1004900027C006F0940E116E126A51DE200E4BEC4E
:1004A00000F0200E4BEC00F00A6A44C005F045C095
:1004B00006F0940E116E126A42DE7CD70300FED75E
:1004C000010EC26E000E69DE2E6E02C02FF0016AB0
:1004D000B00E026E2EC003F02FC004F0C1DE136E0A
:1004E00002C014F013C007F014C008F0320E036EFF
:1004F000046ACEDE136E06C014F0980E135C346EE0
:10050000080E1458356E34C001F035C002F047C0F3
:1005100004F0465080DE136E34C001F035C002F0A6
:100520005DC004F05C507DDE156E13C001F0155007
:1005300092DE156E166E040015501610D8B4CDEF6D
:1005400002F0FE0E4BEC00F0C00E4BEC00F06F0E14
:100550004BEC00F0750E4BEC00F0740E4BEC00F021
:10056000200E4BEC00F06F0E4BEC00F0660E4BECE7
:1005700000F0200E4BEC00F0720E4BEC00F0610E20
:100580004BEC00F06E0E4BEC00F0670E4BEC00F005
:10059000650E4BEC00F094EF03F0246A256A24C04A
:1005A00001F025C002F0046A0B0E35DED8A45DEF21
:1005B00003F0D8902434E96E2534EA6E460EE9261D
:1005C000000EEA22EFCF13F0ECCF14F034C001F0AC
:1005D00035C002F014C004F0135023DE136E010E78
:1005E0002424156E000E2520166ED8901534E96E61
:1005F0001634EA6E460EE926000EEA22EFCF15F019
:10060000ECCF16F034C001F035C002F016C004F093
:10061000155008EC01F0156E13C001F0155014DEF2
:10062000156E166E040015501610D8B458EF03F06E
:10063000010E2424136E000E2520146ED89013345E
:10064000E96E1434EA6E460EE926000EEA22EFCF78
:1006500030F0ECCF31F0D8902434E96E2534EA6ED6
:10066000460EE926000EEA22EFCF32F0ECCF33F04F
:10067000D8902434E96E2534EA6E5E0EE926000E29
:10068000EA22EFCF3AF0ECCF3BF0010E2424136EB8
:10069000000E2520146ED8901334E96E1434EA6EDF
:1006A0005E0EE926000EEA22EFCF3EF0ECCF3FF0DF
:1006B000242AD8B4252AD8A472D73EC007F03FC058
:1006C00008F00A0E036E046A48EC01F0136E06C0CF
:1006D00014F03050345C156E31503558166E15C01C
:1006E00007F016C008F0320E036E046A48EC01F001
:1006F000156E06C016F03050325C176E315033580C
:10070000186E15C001F016C002F017C003F018C033
:1007100004F030EC01F0176E02C018F01750135CB3
:10072000406E18501458416E1200FA0EE5EC00F0BD
:1007300040C001F041C002F03DC004F03C500EEC5E
:1007400001F0D8A412EF04F02CC001F02DC002F08B
:10075000046A000E0EEC01F0D8A40EEF04F03C5039
:10076000405C136E3D504158146E13C001F014C02C
:1007700002F021C004F020500EEC01F0D8A4C5EF27
:1007800003F0060E2C5E000E2D5A3C50405C136E9A
:100790003D504158146E13C001F014C002F02BC03C
:1007A00004F02A500BEC01F0136E3C50405C156EC7
:1007B0003D504158166E15C001F016C002F029C018
:1007C00004F0285011EC01F0156E13C001F0155023
:1007D00024EC01F0156E166E040015501610D8B4F6
:1007E000F6EF03F0040E2C5E000E2D5A3C50405CD8
:1007F000136E3D504158146E13C001F014C002F046
:100800002BC004F02A5008EC01F0D8A40CEF04F03F
:10081000010E2C5E000E2D5A10EF04F02C6A2D6A8A
:100820007EEF04F02CC001F02DC002F0046AFE0E31
:1008300008EC01F0D8A47BEF04F040503C5C136E50
:1008400041503D58146E13C001F014C002F021C095
:1008500004F020500EEC01F0D8A433EF04F0060EA3
:100860002C26000E2D2240503C5C136E41503D580A
:10087000146E13C001F014C002F023C004F0225023
:100880000BEC01F0136E40503C5C156E41503D582E
:10089000166E15C001F016C002F021C004F0205001
:1008A00011EC01F0156E13C001F0155024EC01F0AD
:1008B000156E166E040015501610D8B464EF04F0CF
:1008C000040E2C26000E2D2240503C5C136E41502D
:1008D0003D58146E13C001F014C002F023C004F0A0
:1008E000225008EC01F0D8A479EF04F02C2AD8B4F7
:0E08F0002D2A7EEF04F0FE0E2C6E2D6A1200F3
:020000040030CA
:08000000FFF11FF3FFFDBBFF40
:00000001FF
