:020000040000FA
:10000000006A17EF01F0E950086E829682908290A4
:100010009496949094900F0E9416085000B222D0AB
:100020003A0E026E980E9FEC00F0330E076E2FD83A
:10003000130E026E880E9FEC00F029D8640E9EEC21
:1000400000F025D8640E9EEC00F0220E076E1FD83B
:10005000280E07D80C0E05D8060E03D800820850CB
:1000600001D00080076E00A00BD0829003080EE341
:100070000DD8070E026ED00E9FEC00F0D880120053
:100080000080FE08D8B414EF01F0828000A0009038
:1000900082860F0E82160750F00B82128296073A64
:1000A00000B0F5D7320E9EEC00F0D88014EF01F0CE
:1000B000199E0A50D8B4198E050E096E270E046ECB
:1000C000100E0CD8030E046EE80E08D8046A640EF5
:1000D00005D8046A0A0E02D8055008D0036E0650EF
:1000E000026E0550016ED7EC00F00150016E094E12
:1000F000199E0A5003E0095CD8B012000150D8A440
:10010000199E19BE1200300F0EEF01F0E836E836E6
:100110003C0B0109C212C009C216C050F80B0309FA
:10012000C06E000E026E320E9FEC00F0C282C2B2B0
:10013000FED7C450026EC35014EF01F0026AF40FF0
:10014000016E021EFE0ED8A003D00126D8B0FDD746
:1001500001260400023EF9D7000001B000D001B032
:1001600000D01200036E030E06D0036E010E03D002
:10017000036E040E00D0096E0450025C02E10350CD
:10018000015C040ED8B0010ED8B4020E0914D8A434
:10019000FF0E14EF01F0E866FF0E0114D8A4FF0E65
:1001A00014EF01F00110D8A4FF0E14EF01F0066A5D
:1001B000056A100E076E0234053606360350055EDA
:1001C0000450065A05E20350052604500622D89032
:1001D00001360236072EEFD7015014EF01F003501D
:1001E0000702F4CF06F0F3CF05F004500802F4CF75
:1001F00002F0F3CF01F003500802F3500626F4504A
:100200000122E86A022204500702F3500626F45045
:100210000122E86A0222055014EF01F0E96EFB6A40
:100220001250FA6E1150F96E000104001200050E12
:100230004C6E4D6A0A0E4E6E4F6A0F0E506E516A2A
:10024000140E526E536A190E546E556A1E0E566E77
:10025000576A230E586E596A280E5A6E5B6A2D0E25
:100260005C6E5D6A320E5E6E5F6A370E606E616A4A
:100270003C0E626E636ADB0E346E130E356EF10E49
:10028000366E0F0E376EE30E386E0C0E396E7D0E25
:100290003A6E0A0E3B6E980E3C6E080E3D6E150EC1
:1002A0003E6E070E3F6EDF0E406E050E416EE60E8F
:1002B000426E040E436E1B0E446E040E456E760EA7
:1002C000466E030E476EEE0E486E020E496E7F0EAE
:1002D0004A6E020E4B6E010EC26EC16A870EC06E70
:1002E000FF0E926E000E12DF246E02C025F0E00EAB
:1002F000016EAB0E026E24C003F025C004F057DF80
:10030000136E02C014F013C007F014C008F0330ECF
:10031000036E046A64DF136E06C014F0980E135C5B
:100320002A6E080E14582B6E2AC001F02BC002F062
:1003300035C004F0345019DF136E2AC001F02BC011
:1003400002F04BC004F04A5013DF156E13C001F0E9
:10035000155028DF156E166E040015501610D8B40F
:10036000DDEF01F0FE0E50DE010E4EDE0A6A2AC0FD
:1003700005F02BC006F0060E116E126A99DEFE0E15
:1003800043DEC00E41DE6F0E3FDE750E3DDE740EA5
:100390003BDE200E39DE6F0E37DE660E35DE200EB8
:1003A00033DE720E31DE610E2FDE6E0E2DDE670E35
:1003B0002BDE650E29DE38EF03F0206A216A20C0AB
:1003C00001F021C002F0046A0B0ECFDED8A46CEF5E
:1003D00002F0D8902034E96E2134EA6E340EE9261A
:1003E000000EEA22EFCF13F0ECCF14F02AC001F098
:1003F0002BC002F014C004F01350BADE136E010ECD
:100400002024156E000E2120166ED8901534E96E4A
:100410001634EA6E340EE926000EEA22EFCF15F00C
:10042000ECCF16F02AC001F02BC002F016C004F089
:10043000155098DE156E13C001F01550ACDE156E28
:10044000166E040015501610D8B467EF02F0010EB6
:100450002024136E000E2120146ED8901334E96E00
:100460001434EA6E340EE926000EEA22EFCF26F0AD
:10047000ECCF27F0D8902034E96E2134EA6E340EA8
:10048000E926000EEA22EFCF28F0ECCF29F0D89031
:100490002034E96E2134EA6E4C0EE926000EEA2281
:1004A000EFCF30F0ECCF31F0010E2024136E000EB0
:1004B0002120146ED8901334E96E1434EA6E4C0E79
:1004C000E926000EEA22EFCF32F0ECCF33F0202AFB
:1004D000D8B4212AD8A473D732C007F033C008F0AB
:1004E0000A0E036E046A7BDE136E06C014F02650FB
:1004F0002A5C156E27502B58166E15C007F016C0D3
:1005000008F0320E036E046A6ADE156E06C016F03D
:100510002650285C176E27502958186E15C001F018
:1005200016C002F017C003F018C004F040DE176ECA
:1005300002C018F01750135C176E18501458186E3C
:1005400017C001F018C002F00A0E036E046A2FDE15
:100550002E6E02C02FF032C007F033C008F00A0E32
:10056000036E046A3CDE136E06C014F026502A5C4B
:10057000156E27502B58166E15C007F016C008F0E0
:10058000320E036E046A2BDE156E06C016F026507E
:10059000285C176E27502958186E15C001F016C038
:1005A00002F017C003F018C004F001DE176E02C09D
:1005B00018F01750135C176E18501458186E17C0A7
:1005C00001F018C002F00A0E036E046AD7EC00F0C6
:1005D00005C02CF006C02DF0FE0E04EC00F0010E5C
:1005E00004EC00F00A6A2AC005F02BC006F0060EE3
:1005F000116E126A58EC00F0200E04EC00F0200E90
:1006000004EC00F00A6A24C005F025C006F0060ECE
:10061000116E126A58EC00F0FE0E04EC00F0C00EF1
:1006200004EC00F0540E04EC00F0650E04EC00F055
:100630006D0E04EC00F0700E04EC00F03A0E04ECC9
:1006400000F00A6A2EC005F02FC006F0060E116EEB
:10065000126A58EC00F02E0E04EC00F00A6A2CC06E
:1006600005F02DC006F0060E116E126A58EC00F06F
:0606700039D60300FED79D
:020000040030CA
:08000000FFF11FF3FFFDBBFF40
:00000001FF
