:020000040000FA
:10000000006A43EF01F01AC0EAFF18C0E9FF16507A
:10001000B3EC00F018C0E9FF320E076E000E086E58
:100020001BEC01F0022A012A062A036A046AEF5037
:100030001614076E0400EF50161416180712D8B4E1
:10004000032AD8B4042A1618076E0506D8B4060683
:10005000D8B40106D8B4022EEDD7035040EF01F01A
:10006000E950086E82968290829094969490949033
:100070000F0E9416085000B222D03A0E026E980E5F
:10008000D1EC00F0330E076E2FD8130E026E880EDF
:10009000D1EC00F029D8640ED0EC00F025D8640E25
:1000A000D0EC00F0220E076E1FD8280E07D80C0ED9
:1000B00005D8060E03D80082085001D00080076ED4
:1000C00000A00BD0829003080EE30DD8070E026E3D
:1000D000D00ED1EC00F0D88012000080FE08D8B419
:1000E00040EF01F0828000A0009082860F0E821601
:1000F0000750F00B82128296073A00B0F5D7320E05
:10010000D0EC00F0D88040EF01F0159E0A50D8B432
:10011000158E050E096E270E046E100E0CD8030EF8
:10012000046EE80E08D8046A640E05D8046A0A0E44
:1001300002D8055008D0036E0650026E0550016EBD
:1001400003EC01F00150016E094E159E0A5003E0C8
:10015000095CD8B012000150D8A4159E15BE12003B
:10016000300F3AEF01F0E988E92AEC1240EF01F094
:10017000E836E8363C0B0109C212C009C216C0506D
:10018000F80B0309C06E000E026E320ED1EC00F0C7
:10019000C282C2B2FED7C450026EC35040EF01F01B
:1001A000026AE80F016E021EFC0ED8A003D00126E1
:1001B000D8B0FDD701260400023EF9D701B000D027
:1001C00001A202D0000000D01200D8900232013209
:1001D000FF0FFBE2015040EF01F0036E030E03D06E
:1001E000036E060E00D0096E0450025C02E103505B
:1001F000015C040ED8B0010ED8B4020E0914D8A4C4
:10020000FF0E40EF01F0066A056A100E076E023419
:10021000053606360350055E0450065A05E20350C3
:10022000052604500622D89001360236072EEFD755
:10023000015040EF01F003500702F4CF06F0F3CF76
:1002400005F004500802F4CF02F0F3CF01F00350A0
:100250000802F3500626F4500122E86A02220450F4
:100260000702F3500626F4500122E86A02220550E4
:1002700040EF01F0E96EFB6A1250FA6E1150F96E10
:10028000000104001200400ED36EC16A870EC06EDA
:10029000FF0E926E946A94940C0EBD6E070ECA6E99
:1002A000FF0ECB6E640E246E256A24B0BD8824A098
:1002B000BD9824B2BD8A24A2BD9A24C001F025C0F5
:1002C00002F0020E85DFBE6E0D0EC26E030E50DF11
:1002D0001E6E02C01FF01EC007F01FC008F02C0EDB
:1002E000036E046AA8DF136E06C014F013C001F099
:1002F00014C002F0036A040E046E85DF1E6E02C095
:100300001FF0E9EC01F019EC02F024B0BD8824A044
:10031000BD9824B2BD8A24A2BD9A24C001F025C094
:1003200002F0020E55DFBE6EFE0E9BDE010E99DE60
:10033000660E97DE6C0E95DE6F0E93DE770E91DE05
:100340003D0E8FDE0A6A20C005F021C006F0600E67
:10035000116E126ADADE200E84DE660E82DE720E06
:1003600080DE710E7EDE3D0E7CDE0A6A22C005F064
:1003700023C006F0600E116E126AC7DEFE0E71DE3B
:10038000C00E6FDE720E6DDE650E6BDE660E69DE10
:100390003D0E67DE0A6A1EC005F01FC006F0600E43
:1003A000116E126AB2DE200E5CDE700E5ADE770E1F
:1003B00058DE6D0E56DE3D0E54DE0A6A24C005F08E
:1003C00025C006F0600E116E126A9FDE7DD7030015
:1003D000FED7FA0E036E046A810E186E0F0E1A6EA7
:1003E000200E166E10DE226E04C023F022C001F033
:1003F00023C002F0010E036E046A05DF226E02C004
:1004000023F022C007F023C008F0780E036E046AC0
:1004100012DF136E06C014F013C001F014C002F016
:10042000640E036E050E046EEEDE206E02C021F037
:10043000120020C001F021C002F01FC004F01E50C5
:10044000CCDED8A45DEF02F024C001F025C002F09C
:10045000046A780EC2DED8A45AEF02F020501E5C67
:10046000136E21501F58146E13C001F014C002F017
:10047000046A050EB5DED8A455EF02F020501E5CCC
:10048000136E21501F58146E13C001F014C002F0F7
:10049000050E036E046AB7DE136E02C014F013502B
:1004A00024261450252258EF02F0242AD8B4252AF5
:1004B0005DEF02F0780E246E256A20C001F021C0A5
:1004C00002F01FC004F01E508BDED8A4A2EF02F091
:1004D00024C001F025C002F0046A320E81DED8A4E7
:1004E0009FEF02F01E50205C136E1F502158146EB7
:1004F00013C001F014C002F0046A050E71DED8A426
:1005000099EF02F01E50205C136E1F502158146E9C
:1005100013C001F014C002F0050E036E046A73DE0E
:10052000136E02C014F01350245E1450255A9DEF30
:1005300002F0010E245E000E255AA2EF02F0320EE8
:06054000246E256A120082
:020000040030CA
:08000000FFF11FF3FFFDBBFF40
:00000001FF
